:100000000C94FE000C941B010C941B010C941B011E
:100010000C941B010C941B010C941B010C941B01F0
:100020000C941B010C941B010C941B010C941B01E0
:100030000C941B010C941B010C941B010C941B01D0
:100040000C941B010C941B010C941B010C941B01C0
:100050000C941B010C941B010C941B010C941B01B0
:100060000C941B010C941B010C941B010C941B01A0
:100070000C941B010C941B010C941B010C941B0190
:100080000C941B010C941B010C941B010C941B0180
:100090000C941B010C941B010C941B010C941B0170
:1000A0000C941B010C941B010C941B010C941B0160
:1000B0000C941B010C941B010C941B010C941B0150
:1000C0000C941B010C941B010C941B010C941B0140
:1000D0000C941B010C941B010C941B010C941B0130
:1000E0000C941B010C941B010C9480010C941B01BB
:1000F0000C941B010C941B010C941B010C941B0110
:100100000C941B010C941B010C941B010C941B01FF
:100110000C941B010C941B010C941B010C941B01EF
:100120000C941B010C941B010C941B010C941B01DF
:100130000C941B010C941B010C941B010C941B01CF
:100140000C941B010C941B010C941B010C941B01BF
:100150000C941B010C941B010C941B010C941B01AF
:100160000C941B010C941B010C941B010C941B019F
:100170000C941B010C941B010C941B010C941B018F
:100180000C941B010C941B010C941B010C941B017F
:100190000C941B010C941B010C941B010C941B016F
:1001A0000C941B010C941B010C941B010C941B015F
:1001B0000C941B010C941B010C941B010C941B014F
:1001C0000C941B010C941B010C941B010C941B013F
:1001D0000C941B010C941B010C941B010C941B012F
:1001E0000C941B010C941B010C941B010C941B011F
:1001F0000C941B010C941B010C941B0111241FBEB9
:10020000CFEFCDBFDFE2DEBF12E2A0E0B0E2ECE96B
:10021000FDE002C005900D92A433B107D9F722E2A8
:10022000A4E3B2E201C01D92AA37B207E1F70E942F
:100230007B010C94CC060C94000088ED84BF82E016
:10024000809350008091510081FFFCCF88ED84BFE6
:1002500081E08093400008959091A10A95FFFCCF22
:100260008093A00A0895CF93DF93EC0189918823AE
:1002700019F00E942C01FACFDF91CF9108950E94CE
:1002800033018AE00E942C018DE00C942C01E0EAFD
:10029000FAE080ED878383E8868383E0858380E1CD
:1002A000838388E1848388E0E0E8F6E08183089531
:1002B00087E0E0EAF0E0828378940E94470181ECD5
:1002C00090E20E9433010E94370380E090E00E9498
:1002D0003D0360ED77E080E00E945D0361E080E037
:1002E0000E94790360ED77E081E00E945D0361E0A8
:1002F00081E00C9479030E941D010E945801FFCFF8
:100300001F920F920FB60F9211240F931F932F93EA
:100310003F934F935F936F937F938F939F93AF938D
:10032000BF93CF93DF93EF93FF930091A00A1091B7
:100330007522C12FD0E0CB5CDD4D0883083051F42D
:10034000112341F011501093752280ED90E20E942C
:10035000330117C0802F0E942C010D3051F41882F8
:1003600085E392E20E94420210923422109275229A
:1003700008C01F5F10937522809134228F5F809395
:100380003422FF91EF91DF91CF91BF91AF919F9177
:100390008F917F916F915F914F913F912F911F911D
:1003A0000F910F900FBE0F901F9018950F931F93F2
:1003B000CF93DF93EC018E012196F801808199277C
:1003C00087FD90950E941606892BA9F7C801DF9139
:1003D000CF911F910F910895BF92CF92DF92EF922C
:1003E000FF920F931F93CF93DF937B01EC018E015C
:1003F000F701B1907F01BB2021F12196F8018081A6
:10040000992787FD90950E941E06C82EDD24C7FC03
:10041000D094C6010E9402062B2D332727FD30956C
:10042000892B41F4C9010E941006892BF1F480E068
:1004300090E01EC0C9010E941E06C816D906B9F276
:10044000F6CF1881812F992787FD90950E94160677
:10045000892B69F486EC810F823048F01F3339F024
:10046000112329F01D3019F702C0C80101C0CE01C7
:10047000DF91CF911F910F91FF90EF90DF90CF9080
:10048000BF90089543E050E063E270E20C944802AC
:100490004F925F926F927F928F929F92AF92BF9294
:1004A000CF92DF92EF92FF920F931F93CF93DF9340
:1004B0005B01542E452E0E94D6017C01DC018C91FB
:1004C000882309F48FC08A33A1F4C7010196DF9114
:1004D000CF911F910F91FF90EF90DF90CF90BF9041
:1004E000AF909F908F907F906F905F904F900C9403
:1004F00042028A3249F4BFEFEB1AFB0A82E090E233
:1005000023E0C22ED12C03C0C501C52CD42C4C0134
:10051000612C712C6C147D040CF050C08401F4012A
:1005200060817181C7010E94EC01EC01FBE08F0E3C
:10053000911C009721F48FEF681A780AEBCF88811D
:100540008A3399F4CE010196D8011596AD90BC90EE
:100550001697A114B10431F013965C90139714967A
:100560004C90A9CF84ED90E22BC08F3381F421967B
:10057000CE010E94D601D8011996ED91FC911A97EF
:10058000309779F48BEE90E20E943F010DC0CE01CE
:100590000E94D601D8011796ED91FC9118973097DB
:1005A00031F0CE010995EC01209729F41BC081E0C0
:1005B00091E20E943F01CE0101967DCF86E191E25A
:1005C000DF91CF911F910F91FF90EF90DF90CF902F
:1005D000BF90AF909F908F907F906F905F904F9063
:1005E0000C943F01DF91CF911F910F91FF90EF90FD
:1005F000DF90CF90BF90AF909F908F907F906F9043
:100600005F904F9008956BE370E00C942606CF93B3
:10061000DF93EC0185E391E20E943F01CE01DF917F
:10062000CF910C940303CF93DF93EC0180E591E22B
:100630000E943F01CE01DF91CF910C940303CF9331
:10064000DF93EC018DE691E20E943F01CE01DF9144
:10065000CF910C940303CF93DF93EC0184E891E2F4
:100660000E943F01CE01DF91CF910C940303E0E49F
:10067000F6E08FEF80831482089510927622109214
:100680007722E0E0F8E080ED97E086A397A38181F0
:1006900083608183808181608083E0E8F8E08081ED
:1006A0008F6080830895E0E8F8E08081807F808318
:1006B000E0E0F8E080818083089581110DC06093AF
:1006C000BF207093C020609328087093290860931E
:1006D0002A0870932B0808956093BD207093BE2064
:1006E00060932C0870932D0860932E0870932F0848
:1006F0000895CF93DF9300D0CDB7DEB76A838983A7
:100700000E94530389816A8181112AC080918C08DB
:10071000807F80938C0880914406807F809344067C
:1007200080918C08662339F0836080938C088091D7
:100730004406846006C08C6080938C0880914406D7
:100740008160809344068091BF209091C020809367
:1007500028089093290880932A0890932B0829C091
:1007600080918C088F7080938C08809144068F70E4
:100770008093440680918C08662339F080638093CF
:100780008C0880914406806406C0806C80938C083D
:10079000809144068061809344068091BD209091B1
:1007A000BE2080932C0890932D0880932E08909360
:1007B0002F0880E090E00F900F90DF91CF910C9484
:1007C0003D03FF920F931F93CF93DF93EC0188813A
:1007D000FC2E0D2F1991112389F0992787FD9095F3
:1007E0000E941606892B69F0812F992787FD909525
:1007F0000E941606892B29F41B3329F480E090E02F
:1008000004C0812FE5CF8F2D902FDF91CF911F91C5
:100810000F91FF900895CF92DF92EF92FF92CF93C6
:10082000DF93EC014AE050E060E070E00E94EE04EB
:100830006B017C0181EDC81687E0D80620F088EEB8
:1008400091E20E943F0160ED77E06C197D0980E044
:100850000E945D03CE01DF91CF91FF90EF90DF907A
:10086000CF900C940303CF92DF92EF92FF92CF933D
:10087000DF93EC014AE050E060E070E00E94EE049B
:100880006B017C0181EDC81687E0D80620F088EE68
:1008900091E20E943F0160ED77E06C197D0981E0F3
:1008A0000E945D03CE01DF91CF91FF90EF90DF902A
:1008B000CF900C9403030F931F93CF93DF938C017E
:1008C0000E94E103EC0167EF71E20E943106C81754
:1008D000D90731F48CEF91E20E943F0161E00DC035
:1008E0006BE072E2CE010E943106C817D90749F4C5
:1008F00080E192E20E943F0160E080E00E94790383
:1009000004C080E292E20E943F01C801DF91CF91D2
:100910001F910F910C9403030F931F93CF93DF93B9
:100920008C010E94E103EC0167EF71E20E94310645
:10093000C817D90731F48CEF91E20E943F0161E0C2
:100940000DC06BE072E2CE010E943106C817D907D4
:1009500049F480E192E20E943F0160E081E00E9460
:10096000790304C080E292E20E943F01C801DF9156
:10097000CF911F910F910C9403030F931F93CF936B
:10098000DF93CDB7DEB76097CDBFDEBF8C01E0E867
:10099000F8E0848540E1BE016F5F7F4F90E00E94E8
:1009A0004B06CE0101960E943F01E0E4F6E084810F
:1009B00040E1BE016F5F7F4F90E00E944B06CE0189
:1009C00001960E943F01C8010E9403036096CDBFBB
:1009D000DEBFDF91CF911F910F9108952F923F922B
:1009E0005F926F927F928F929F92AF92BF92CF92BF
:1009F000DF92EF92FF920F931F93CF93DF938B01C0
:100A0000EA016115710521F0DB018C9311969C932D
:100A1000209739F09E01225031092332310508F028
:100A2000D8C07C016701BFEFCB1ADB0A5601F70182
:100A30006080862D90E00E941606892B11F07601C9
:100A4000F1CFFDE26F120AC0570182E0A80EB11C7F
:100A5000D70111966C90772473940BC0BBE26B1294
:100A600007C05701E2E0AE0EB11CD70111966C90A1
:100A7000712CCE018F7E892B89F4B0E36B1237C0C5
:100A8000F50180818F7D8835D1F46180F2E0AF0E71
:100A9000B11C872D8260782EC0E1D0E0CA30D1052C
:100AA00051F1C031D10521F0C830D10599F409C008
:100AB000CC24CA94DC2CEC2CAFE0FA2E22C0209778
:100AC00069F7C8E0D0E0CC24CA94DC2CEC2CFFE120
:100AD000FF2E17C06FEF7FEFCB019E01442737FD3C
:100AE0004095542F0E94900669017A010AC0209710
:100AF000A9F6CAE0D0E0E9E9CE2EDC2CEC2CE9E145
:100B0000FE2EF50160E020E030E0A9014E01AA24AC
:100B100097FCA094BA2C1F0170ED572E560CA9E03B
:100B2000A51570F48FEB860D8A3118F499EC592EC7
:100B300006C08FE9860D8A3148F589EA582E560C91
:100B4000852D90E08C179D070CF56F3FD9F0C216EC
:100B5000D306E406F50698F0C501B4010E948006AC
:100B60009B01AC01852D90E0A0E0B0E0280F391F7B
:100B70004A1F5B1F281739074A075B0710F46FEFFE
:100B800001C061E03196D1016C90C5CF011511050E
:100B900051F0662311F0319703C071FE04C0329703
:100BA000D801ED93FC9370FE07C0509540953095A9
:100BB00021953F4F4F4F5F4F67FF10C082E290E09B
:100BC00080937822909379226FEF7FEF8FEF9FEFE2
:100BD00007C060E070E080E090E002C0B901CA01A7
:100BE000DF91CF911F910F91FF90EF90DF90CF9009
:100BF000BF90AF909F908F907F906F905F903F904D
:100C00002F900895911106C080538A5010F0865C91
:100C100006C0089599278827089585FDFBCF806237
:100C20009111F8CF81568A51E0F708959111F2CFD2
:100C3000803219F089508550D0F7089591110895A8
:100C400081548A5108F4805E855A0895FC0181918F
:100C5000861721F08823D9F7992708953197CF0176
:100C60000895FB0151915523A9F0BF01DC014D917D
:100C700045174111E1F759F4CD010190002049F0E9
:100C80004D9140154111C9F3FB014111EFCF81E0B6
:100C900090E001970895BB274A3031F4992322F45C
:100CA000BDE2909581959F4F0C945706BB27FB01A1
:100CB0005527AA27880F991FAA1FA41710F0A41B55
:100CC00083955051B9F7A05DAA3308F0A95DA193AF
:100CD000009779F7B111B1931192CB010C94700682
:100CE000DC01FC01672F71917723E1F7329704C093
:100CF0007C916D9370836291AE17BF07C8F308951E
:100D0000DB018F939F930E94B206BF91AF91A29F88
:100D1000800D911DA39F900DB29F900D11240895F9
:100D2000A1E21A2EAA1BBB1BFD010DC0AA1FBB1FEF
:100D3000EE1FFF1FA217B307E407F50720F0A21B61
:100D4000B30BE40BF50B661F771F881F991F1A94CE
:100D500069F760957095809590959B01AC01BD01F8
:100D6000CF0108950E94BD06A59F900DB49F900DE0
:100D7000A49F800D911D11240895A29FB001B39FDF
:100D8000C001A39F700D811D1124911DB29F700D94
:0C0D9000811D1124911D0895F894FFCFDF
:100D9C0089218E21000000000013031F0392210003
:100DAC000000000013030703962100000000002B35
:100DBC000300009A210003009C20000000009E21EB
:100DCC000003007B2000000000A22100050044204D
:100DDC0000000000A921000000000013030703B36A
:100DEC0021000000000013030703BB2100000000DA
:100DFC000013030703C121000000000013030703C5
:100E0C00C621000000000013030703CD21000000E1
:100E1C00000033040703D62100000000008C0407F7
:100E2C0003E021000000000013030703CD210000A4
:100E3C000000000B04BD04D62100000000005B0480
:100E4C000703E021000000000013030703D007D0C4
:100E5C000748656C6C6F20776F726C64210A0D000B
:100E6C00082008005B534350495D204E6F2073757A
:100E7C0062636F6D6D616E647321005B5343504907
:100E8C005D204E6F7420717565727961626C65219D
:100E9C00005B534350495D204E6F742063616C6C52
:100EAC0061626C6521005B534350495D20436F6D5B
:100EBC006D616E6420646F6573206E6F742065784D
:100ECC0069737421005155455259204E4F54205985
:100EDC00455420494D504C454D454E5445442100F8
:100EEC00434F4D4D414E44204E4F542059455420B4
:100EFC00494D504C454D454E5445442100414756B3
:100F0C0033204D6F746F722044726976657220764F
:100F1C00302E31001B5B324A004E554C4C0049447C
:100F2C004E004F504300434C52004348310043485D
:100F3C00320053595374656D004652455175656EB8
:100F4C0063790054494D456F757400535441527484
:100F5C000053544F50005354415475730056454C34
:100F6C006F6369747900444952656374696F6E00EC
:100F7C0043555252656E7400494E56414C494420BB
:100F8C0056414C55452100464F525700474F494E4C
:100F9C004720464F525741524421004241434B0097
:100FAC00474F494E47204241434B57415244210041
:100FBC00494E56414C494420444952454354494FAB
:040FCC004E210000B2
:00000001FF
