:100000000C94FC000C941D010C941D010C941D011A
:100010000C941D010C941D010C941D010C941D01E8
:100020000C941D010C941D010C941D010C941D01D8
:100030000C941D010C941D010C941D010C941D01C8
:100040000C941D010C941D010C941D010C941D01B8
:100050000C941D010C941D010C941D010C941D01A8
:100060000C941D010C941D010C941D010C941D0198
:100070000C941D010C941D010C941D010C941D0188
:100080000C941D010C941D010C941D010C941D0178
:100090000C941D010C941D010C941D010C941D0168
:1000A0000C941D010C941D010C941D010C941D0158
:1000B0000C941D010C941D010C941D010C941D0148
:1000C0000C941D010C941D010C941D010C941D0138
:1000D0000C941D010C941D010C941D010C941D0128
:1000E0000C941D010C941D010C946A010C941D01CB
:1000F0000C941D010C941D010C941D010C941D0108
:100100000C941D010C941D010C941D010C941D01F7
:100110000C941D010C941D010C941D010C941D01E7
:100120000C941D010C941D010C941D010C941D01D7
:100130000C941D010C941D010C941D010C941D01C7
:100140000C941D010C941D010C941D010C941D01B7
:100150000C941D010C941D010C941D010C941D01A7
:100160000C941D010C941D010C941D010C941D0197
:100170000C941D010C941D010C941D010C941D0187
:100180000C941D010C941D010C941D010C941D0177
:100190000C941D010C941D010C941D010C941D0167
:1001A0000C941D010C941D010C941D010C941D0157
:1001B0000C941D010C941D010C941D010C941D0147
:1001C0000C941D010C941D010C941D010C941D0137
:1001D0000C941D010C941D010C941D010C941D0127
:1001E0000C941D010C941D010C94F5020C940D034C
:1001F0000C9401030C94190311241FBECFEFCDBF43
:10020000DFE5DEBF00E00CBF11E2A0E0B0E2ECEA07
:10021000F6E000E00BBF02C007900D92A03BB107D3
:10022000D9F721E2A0EBB1E201C01D92A23FB207D3
:10023000E1F70E9465010C9454030C94000088EDD2
:1002400084BF82E0809350008091510081FFFCCFF9
:1002500088ED84BF81E08093400008959091A10BC8
:1002600095FFFCCF8093A00B0895CF93DF93EC0113
:100270008991882319F00E942E01FACFDF91CF9146
:1002800008950E9435018AE00E942E018DE00C94B1
:100290002E01E0EAFBE080ED878383E8868383E03C
:1002A000858380E1838388E1848388E0E0EAF6E067
:1002B0008183089587E0E0EAF0E0828378940E94E9
:1002C000490181E990E20C9435010E941F010E94CE
:1002D0005A01FFCF1F920F920FB60F9211240BB647
:1002E0000F920F931F932F933F934F935F936F93AF
:1002F0007F938F939F93AF93BF93CF93DF93EF93AE
:10030000FF930091A00B1091F121C12FD0E0CF54A9
:10031000DE4D0883083051F4112341F01150109341
:10032000F12180EA90E20E94350117C0802F0E94DF
:100330002E010D3051F4188281EB91E20E943002BF
:100340001092B0211092F12108C01F5F1093F1218B
:100350008091B0218F5F8093B021FF91EF91DF9169
:10036000CF91BF91AF919F918F917F916F915F914D
:100370004F913F912F911F910F910F900BBE0F90B6
:100380000FBE0F901F9018950F931F93CF93DF937D
:10039000EC018E012196F8018081992787FD9095C7
:1003A0000E943903892BA9F7C801DF91CF911F91D2
:1003B0000F910895BF92CF92DF92EF92FF920F9329
:1003C0001F93CF93DF937B01EC018E01F701B19076
:1003D0007F01BB2021F12196F8018081992787FDBB
:1003E00090950E944103C82EDD24C7FCD094C6011D
:1003F0000E9425032B2D332727FD3095892B41F4AF
:10040000C9010E943303892BF1F480E090E01EC003
:10041000C9010E944103C816D906B9F2F6CF188166
:10042000812F992787FD90950E943903892B69F4C4
:1004300086EC810F823048F01F3339F0112329F008
:100440001D3019F702C0C80101C0CE01DF91CF9164
:100450001F910F91FF90EF90DF90CF90BF90089584
:1004600042E050E063E270E20C9436024F925F92F9
:100470006F927F928F929F92AF92BF92CF92DF92B4
:10048000EF92FF920F931F93CF93DF935B01542E54
:10049000452E0E94C4017C01DC018C91882309F463
:1004A0008FC08A33A1F4C7010196DF91CF911F91CC
:1004B0000F91FF90EF90DF90CF90BF90AF909F9003
:1004C0008F907F906F905F904F900C9430028A32A3
:1004D00049F4BFEFEB1AFB0A82E090E223E0C22E60
:1004E000D12C03C0C501C52CD42C4C01612C712C1E
:1004F0006C147D040CF050C08401F40160817181A2
:10050000C7010E94DA01EC01FBE08F0E911C0097FD
:1005100021F48FEF681A780AEBCF88818A3399F437
:10052000CE010196D8011596AD90BC901697A114F6
:10053000B10431F013965C90139714964C90A9CFA8
:1005400084EA90E22BC08F3381F42196CE010E9481
:10055000C401D8011996ED91FC911A97309779F45E
:100560008BEB90E20E9441010DC0CE010E94C401BC
:10057000D8011796ED91FC911897309731F0CE0184
:100580001995EC01209729F41BC081ED90E20E949F
:100590004101CE0101967DCF86EE90E2DF91CF91B1
:1005A0001F910F91FF90EF90DF90CF90BF90AF9091
:1005B0009F908F907F906F905F904F900C9441012F
:1005C000DF91CF911F910F91FF90EF90DF90CF902F
:1005D000BF90AF909F908F907F906F905F904F9063
:1005E00008956BE370E00C944903CF93DF93EC0123
:1005F00085E091E20E944101CE01DF91CF910C9400
:10060000F102CF93DF93EC0180E291E20E9441017D
:10061000CE01DF91CF910C94F102CF93DF93EC01E7
:100620008DE391E20E944101CE01DF91CF910C94C4
:10063000F102CF93DF93EC0184E591E20E94410146
:10064000CE01DF91CF910C94F102911106C080533D
:100650008A5010F0865C06C008959927882708956F
:1006600085FDFBCF80629111F8CF81568A51E0F76A
:1006700008959111F2CF803219F089508550D0F74A
:1006800008959111089581548A5108F4805E855A25
:100690000895FC018191861721F08823D9F79927C5
:0C06A00008953197CF010895F894FFCF22
:1006AC0059215E21000000000001030D03622100AE
:1006BC00000000000103F502662100000000001993
:1006CC000300006A2100030070200000000071216B
:1006DC000005003920000000007821000000000017
:1006EC000103F502802100000000000103F50288DF
:1006FC002100000000000103F5028E210000000023
:10070C00000103F502932100000000000103F50233
:10071C009A210000000000F502F502A32100000060
:10072C000000F502F502A82100000000000103F50D
:10073C000248656C6C6F20776F726C64210A0D0037
:10074C00082008005B534350495D204E6F207375A1
:10075C0062636F6D6D616E647321005B534350492E
:10076C005D204E6F7420717565727961626C6521C4
:10077C00005B534350495D204E6F742063616C6C79
:10078C0061626C6521005B534350495D20436F6D82
:10079C006D616E6420646F6573206E6F7420657874
:1007AC0069737421005155455259204E4F542059AC
:1007BC00455420494D504C454D454E54454421001F
:1007CC00434F4D4D414E44204E4F542059455420DB
:1007DC00494D504C454D454E5445442100414756DA
:1007EC0033204D6F746F7220447269766572207677
:1007FC00302E31001B5B324A004E554C4C004944A4
:10080C004E004F504300434C520053454E536F72B1
:10081C000053595374656D00444953506C61790011
:10082C00425554746F6E73005354415274005354B8
:10083C004F50005354415475730044495354616EE6
:10084C006365004C494E6500564F4C54616765001A
:00000001FF
