:100000000C9483010C94A4010C94A4010C94A401FD
:100010000C94A4010C94A4010C94A4010C94A401CC
:100020000C94A4010C94A4010C94A4010C94A401BC
:100030000C94A4010C94A4010C94A4010C94A401AC
:100040000C94A4010C94A4010C94A4010C94A4019C
:100050000C94A4010C94A4010C94A4010C94A4018C
:100060000C94A4010C94A4010C94A4010C94A4017C
:100070000C94A4010C94A4010C94A4010C94A4016C
:100080000C94A4010C94A4010C94A4010C94A4015C
:100090000C94A4010C94A4010C94A4010C94A4014C
:1000A0000C94A4010C94A4010C94A4010C94A4013C
:1000B0000C94A4010C94A4010C94A4010C94A4012C
:1000C0000C94A4010C94A4010C94A4010C94A4011C
:1000D0000C94A4010C94A4010C94A4010C94A4010C
:1000E0000C94A4010C94A4010C94A4010C94A401FC
:1000F0000C94A4010C94A4010C94A4010C94A401EC
:100100000C94A4010C94A4010C94A4010C94A401DB
:100110000C94A4010C94A4010C94A4010C94A401CB
:100120000C94A4010C94A4010C94A4010C94A401BB
:100130000C94A4010C94A4010C94A4010C94A401AB
:100140000C94A4010C94A4010C94A4010C94A4019B
:100150000C94A4010C94A4010C94A4010C94A4018B
:100160000C94A4010C94A4010C94A4010C94A4017B
:100170000C94A4010C94A4010C94A4010C94A4016B
:100180000C94A4010C94A4010C94A4010C94A4015B
:100190000C94A4010C94A4010C94A4010C94A4014B
:1001A0000C94A4010C94A4010C94A4010C94A4013B
:1001B0000C94A4010C94A4010C94A4010C94A4012B
:1001C0000C94A4010C94A4010C94A4010C94A4011B
:1001D0000C94A4010C94A4010C94A4010C949D050E
:1001E0000C94A4010C94A4010C94E2070C941E0737
:1001F0000C942A070C9406070C9472070C941207AF
:100200000C94AF076E616E00696E660000407A1054
:10021000F35A00A0724E18090010A5D4E80000E8B7
:100220007648170000E40B54020000CA9A3B000015
:1002300000E1F505000080969800000040420F00A4
:100240000000A08601000000102700000000E80365
:10025000000000006400000000000A000000000030
:100260000100000000002C76D888DC674F0823DFEF
:10027000C1DFAE59E1B1B796E5E3E453C63AE651C2
:10028000997696E8E6C28426EB898C9B62ED407CE9
:100290006FFCEFBC9C9F40F2BAA56FA5F490055A85
:1002A0002AF75C936B6CF9676DC11BFCE0E40D47AA
:1002B000FEF520E6B500D0ED902E030094357705CD
:1002C0000080841E080000204E0A000000C80C3385
:1002D0003333330F986E12831141EF8D2114893B14
:1002E000E65516CFFEE6DB18D1844B381BF77C1D94
:1002F000901DA4BBE424203284725E228100C9F1E7
:1003000024ECA1E53D2711241FBECFEFCDBFDFE5D3
:10031000DEBF00E00CBF11E2A0E0B0E2E6EFF5E1E5
:1003200000E00BBF02C007900D92AC3BB107D9F7BC
:1003300022E2ACEBB1E201C01D92AF35B207E1F7AA
:100340000E9496050C94F90A0C9400002F923F929B
:100350004F925F926F927F928F929F92AF92BF92D5
:10036000CF92DF92EF92FF920F931F93CF93DF9381
:10037000CDB7DEB76397CDBFDEBF7C011B016A013D
:10038000FC0116821782838181FF67C3BE016F5F04
:100390007F4F4B01F7019381F10193FD859193FF0D
:1003A00081911F01882309F454C3853239F493FDE8
:1003B000859193FF81911F01853239F4B70190E057
:1003C0000E94400A56016501E5CF10E0512C20E063
:1003D0002032A0F48B3269F030F4803259F083324D
:1003E00069F420612CC08D3239F0803339F42160FA
:1003F00026C02260246023C0286021C027FD27C0BA
:1004000030ED380F3A3078F426FF06C0FAE01F9F2F
:10041000300D1124132F13C06AE0569E300D1124A5
:10042000532E20620CC08E3221F426FD12C32064AC
:1004300006C08C3611F4206802C0883641F4F10100
:1004400093FD859193FF81911F018111C1CF9BEB9A
:10045000980F933018F42061805E06C09BE9980FD6
:10046000933008F0ABC12F7E26FF16E02F73722E5B
:10047000853621F4F22FF0647F2E08C0863621F4F1
:10048000622F6068762E02C01111115077FE07C0EE
:100490001C3348F444244394410E27E00BC0183029
:1004A00030F4212F06C027E04CE3442E03C027E0A0
:1004B00017E0412C560174E0A70EB11CF6016081D3
:1004C000718182819381042DA4010E9423096C0112
:1004D000098100FF02C003FF06C071FC07C072FC67
:1004E00008C0612C08C03DE2632E05C02BE2622EDD
:1004F00002C090E2692E802F8C70A1F1662011F06D
:1005000084E001C083E0851510F0512C0CC0581A0E
:1005100073FC09C0B70180E290E00E94400A5A943F
:100520005110F8CFF2CF662029F0B701862D90E068
:100530000E94400A03FD03C008E012E002C004E08C
:1005400012E0F72DF0717F2EF8018491882309F4D1
:1005500076C271108052B70190E00E94400A0F5F8E
:100560001F4FF2CF77FE0FC04C0C04FF04C08A81EE
:10057000813309F44A94141474F5F8E0F41578F50D
:1005800088E0482E2CC076FC2AC0812F90E08C1584
:100590009D059CF06CEFC6166FEFD60674F0772DB4
:1005A0007068772E0AC0E2E0F0E0EC0FFD1FE10F6B
:1005B000F11D8081803319F411501111F4CF77FEB1
:1005C0000EC044244394410E812F90E0C816D906F2
:1005D0002CF41C1904C04424439401C010E077FE9D
:1005E00007C01C141D043CF496012F5F3F4F05C04B
:1005F00025E030E002C021E030E0662011F02F5FFE
:100600003F4F112331F0412F50E04F5F5F4F240FD8
:10061000351F452D50E02417350714F4521A01C038
:10062000512C872D897049F4552039F0B70180E2AB
:1006300090E00E94400A5A94F7CF662029F0B70153
:10064000862D90E00E94400A73FC09C0552039F0C5
:10065000B70180E390E00E94400A5A94F7CF77FEFA
:100660005FC09C2D8D2DD7FE02C090E080E0692EEA
:10067000782E40E050E0C601841991098C879D874F
:10068000960126193709280D391D812F90E0EE2794
:10069000FF27E81BF90BEE87FF87FFEF6F167F063A
:1006A00069F4B7018EE290E02B8B3A8B488B598B23
:1006B0000E94400A598948893A892B89C614D7046F
:1006C00054F06C857D85661577052CF4F901E40FEF
:1006D000F51F818101C080E371E0671A71084F5FE7
:1006E0005F4FEE85FF856E167F066CF0B70190E0D8
:1006F0002B8B3A8B488B598B0E94400A2B893A8965
:1007000048895989CACF6C147D0439F49A8196338B
:1007100018F4953311F404FF81E3B70190E04BC066
:100720008A81813309F00F7EB70190E00E94400A70
:10073000111105C074FE18C085E490E017C0B70120
:100740008EE290E00E94400A82E066246394680E84
:10075000F401E80FF11D8081B70190E00E94400A8A
:10076000115041F3862DF1CF85E690E0B7010E944C
:10077000400AD7FC05C0C114D10439F404FF05C0F8
:10078000D194C194D1088DE201C08BE2B70190E011
:100790000E94400A80E36AE0C616D1042CF08F5F05
:1007A000FAE0CF1AD108F7CFB70190E00E94400AD3
:1007B000B701C601C0960E94400A41C1833631F09C
:1007C000833779F0833509F058C021C0560172E0B3
:1007D000A70EB11CF6018081898301E010E064015D
:1007E00014C05601F2E0AF0EB11CF601C080D180FA
:1007F00026FF03C0612F70E002C06FEF7FEFC601DC
:100800002B8B0E94350A8C012B892F7715C056013E
:10081000F2E0AF0EB11CF601C080D18026FF03C00C
:10082000612F70E002C06FEF7FEFC6012B8B0E943B
:100830001F0A8C012B892068722E23FD1AC0852D7A
:1008400090E008171907A8F4B70180E290E00E9431
:10085000400A5A94F4CFF60177FC859177FE819196
:100860006F01B70190E00E94400A51105A94015064
:1008700011090115110579F7E2C0843611F08936A6
:1008800051F5560127FF09C0F4E0AF0EB11CF60187
:1008900060817181828193810AC0F2E0AF0EB11C48
:1008A000F60160817181882777FD8095982F022F4E
:1008B0000F7697FF08C090958095709561957F4F52
:1008C0008F4F9F4F00682AE030E0A4010E949B0AEE
:1008D000C82EC8183EC0022F853721F40F7E2AE0AB
:1008E00030E01DC0097F8F3691F018F4883559F03B
:1008F000B0C0803719F0883711F0ABC0006104FF39
:1009000009C0046007C024FF08C0066006C028E0D4
:1009100030E005C020E130E002C020E132E05601C5
:1009200007FF09C0F4E0AF0EB11CF60160817181D0
:100930008281938108C0F2E0AF0EB11CF6016081A4
:10094000718180E090E0A4010E949B0AC82EC81823
:100950000F7706FF0BC0202F2E7FC11650F404FF27
:100960000AC002FD08C0202F2E7E05C0DC2C202FDF
:1009700003C0DC2C01C0D12E24FF0DC0FE01EC0D04
:10098000F11D8081803311F4297E09C022FF06C049
:10099000D394D39404C0822F867809F0D39423FD96
:1009A00013C020FF06C01C2DD51418F4150D1D19F9
:1009B000D52CD51468F4B70180E290E02B8B0E940F
:1009C000400AD3942B89F5CFD51410F45D1801C0DB
:1009D000512C24FF12C0B70180E390E02B8B0E94C2
:1009E000400A2B8922FF17C021FF03C088E590E051
:1009F00002C088E790E0B7010CC0822F867859F0DA
:100A000021FD02C080E201C08BE227FD8DE2B7012B
:100A100090E00E94400AC11638F4B70180E390E0EC
:100A20000E94400A1150F7CFCA94F401EC0DF11D59
:100A30008081B70190E00E94400AC110F5CF552097
:100A400009F4C1CCB70180E290E00E94400A5A94B8
:100A5000F6CFF7018681978102C08FEF9FEF6396F3
:100A6000CDBFDEBFDF91CF911F910F91FF90EF902F
:100A7000DF90CF90BF90AF909F908F907F906F90BE
:100A80005F904F903F902F90089588ED84BF82E053
:100A9000809350008091510081FFFCCF88ED84BF8E
:100AA00081E08093400008959091A10B95FFFCCFC9
:100AB0008093A00B0895CF93DF93EC018991882355
:100AC00019F00E945405FACFDF91CF9108950C944C
:100AD0005B05E0EAFBE080ED878383E8868383E0C3
:100AE000858380E1838388E1848388E0E0EAF6E01F
:100AF0008183089587E0E0EAF0E0828378940E94A1
:100B000069050E943E0781E0E0E0F6E081830895F8
:100B10008091BC21882349F08FEB91E20E9400076D
:100B20001092BC2181E08093070608950E9445053C
:100B30000E947A050E948805FDCF1F920F920FB682
:100B40000F9211240BB60F928F939F93EF93FF9305
:100B50009091A00B8091BE21E82FF0E0E154FE4D72
:100B600090839A3049F4108281E08093BC211092E6
:100B7000BD211092BE2108C08F5F8093BE2180915D
:100B8000BD218F5F8093BD21FF91EF919F918F9148
:100B90000F900BBE0F900FBE0F901F9018950F93E4
:100BA0001F93CF93DF93EC018E012196F801808192
:100BB000992787FD90950E940F0A892BA9F7C801F4
:100BC000DF91CF911F910F910895BF92CF92DF9245
:100BD000EF92FF920F931F93CF93DF937B01EC0172
:100BE0008E01F701B1907F01BB2021F12196F80120
:100BF0008081992787FD90950E94170AC82EDD24D1
:100C0000C7FCD094C6010E94FB092B2D332727FD7A
:100C10003095892B41F4C9010E94090A892BF1F40E
:100C200080E090E01EC0C9010E94170AC816D906CC
:100C3000B9F2F6CF1881812F992787FD90950E94F0
:100C40000F0A892B69F486EC810F823048F01F333C
:100C500039F0112329F01D3019F702C0C80101C075
:100C6000CE01DF91CF911F910F91FF90EF90DF9018
:100C7000CF90BF9008956BE370E00C942A0A0E9415
:100C8000670589EB91E20C9467054F925F926F9232
:100C90007F928F929F92AF92BF92CF92DF92EF920C
:100CA000FF920F931F93CF93DF935B01542E452E3A
:100CB0000E94CF057C01DC018C91882309F48FC050
:100CC0008A33A1F4C7010196DF91CF911F910F9153
:100CD000FF90EF90DF90CF90BF90AF909F908F905C
:100CE0007F906F905F904F900C9400078A3249F488
:100CF000BFEFEB1AFB0A82E090E223E0C22ED12C78
:100D000003C0C501C52CD42C4C01612C712C6C1472
:100D10007D040CF050C08401F40160817181C70131
:100D20000E94E505EC01FBE08F0E911C009721F479
:100D30008FEF681A780AEBCF88818A3399F4CE0155
:100D40000196D8011596AD90BC901697A114B104E8
:100D500031F013965C90139714964C90A9CF8CE9C0
:100D600090E22BC08F3381F42196CE010E94CF05F3
:100D7000D8011996ED91FC911A97309779F483EB8D
:100D800090E20E943F060DC0CE010E94CF05D8011F
:100D90001796ED91FC911897309731F0CE01199587
:100DA000EC01209729F41BC089EC90E20E943F06D9
:100DB000CE0101967DCF8EED90E2DF91CF911F9114
:100DC0000F91FF90EF90DF90CF90BF90AF909F90EA
:100DD0008F907F906F905F904F900C943F06DF91C3
:100DE000CF911F910F91FF90EF90DF90CF90BF9028
:100DF000AF909F908F907F906F905F904F900895ED
:100E000042E050E063E270E20C944506CF93DF933A
:100E1000EC018DEF90E20E943F06CE01DF91CF9171
:100E20000C943B06CF93DF93EC0188E191E20E94A2
:100E30003F06CE01DF91CF910C943B06CF93DF9319
:100E4000EC0185E391E20E943F06CE01DF91CF9154
:100E50000C943B06CF93DF93EC018FE491E20E9468
:100E60003F06CE01DF91CF910C943B0622E0209308
:100E7000CA01FC0184911092CA0108951F93CF9377
:100E8000DF93C0E0D2E011E01883198287E08C8301
:100E900080E290E00E9436078C8781E290E00E9419
:100EA00036078D871A8218A319A21AA2DF91CF9153
:100EB0001F910895880F880F880F809321028091D9
:100EC0002002806880932002809106028823E1F34B
:100ED00080910602816080930602809110029091B9
:100EE00011020895CF92DF92EF92FF920F931F931A
:100EF000CF93DF931F92CDB7DEB77C0121E003EBE8
:100F000011E28FE3C82E82E2D82E822F29830E941D
:100F10005A079F938F931F930F93DF92CF920E9454
:100F2000720A8FE392E20E94670529812F5F0F907A
:100F30000F900F900F900F900F90243031F789EBA6
:100F400091E20E946705C7010F90DF91CF911F9139
:100F50000F91FF90EF90DF90CF900C943B06CF93D2
:100F6000DF93EC0185E00E945A07BC0180E090E02D
:100F70000E94320820E030E040E859E30E946F0808
:100F800023E333E34BEE51E40E946F089F938F936A
:100F90007F936F9387EB91E29F938F938FE192E220
:100FA0009F938F930E94720A8FE192E20E946705DD
:100FB0008DB79EB708968DBF9EBFCE01DF91CF91B2
:100FC0000C943B06BF92CF92DF92EF92FF920F9369
:100FD0001F93CF93DF936C0180EE8093A106C0E056
:100FE000D0E030EEB32E43EBE42E41E2F42E0FEFCF
:100FF00011E2CE0125E0880F991F2A95E1F7B09202
:10100000A6068093A5068FE193E00197F1F700C053
:10101000000086E00E945A079F938F93FF92EF9201
:101020001F930F930E94720A8FEF91E20E9467054F
:1010300021960F900F900F900F900F900F90C83047
:10104000D105B9F689EB91E20E946705C601DF91EF
:10105000CF911F910F91FF90EF90DF90CF90BF90B5
:101060000C943B06E89409C097FB3EF4909580955C
:10107000709561957F4F8F4F9F4F9923A9F0F92F5E
:1010800096E9BB279395F695879577956795B795DC
:10109000F111F8CFFAF4BB0F11F460FF1BC06F5FC2
:1010A0007F4F8F4F9F4F16C0882311F096E911C0D4
:1010B000772321F09EE8872F762F05C0662371F0F5
:1010C00096E8862F70E060E02AF09A95660F771F09
:1010D000881FDAF7880F9695879597F908950BD0B2
:1010E00078C069D028F06ED018F0952309F05AC066
:1010F0005FC01124A2C07ED0A0F3959FD1F3950FBD
:1011000050E0551F629FF001729FBB27F00DB11D8B
:10111000639FAA27F00DB11DAA1F649F6627B00D1B
:10112000A11D661F829F2227B00DA11D621F739F04
:10113000B00DA11D621F839FA00D611D221F749F12
:101140003327A00D611D231F849F600D211D822F59
:10115000762F6A2F11249F5750408AF0E1F08823A0
:101160004AF0EE0FFF1FBB1F661F771F881F9150AD
:101170005040A9F79E3F510570F014C05EC05F3F1C
:10118000ECF3983EDCF3869577956795B795F795E0
:10119000E7959F5FC1F7FE2B880F911D9695879568
:1011A00097F9089597F99F6780E870E060E00895E7
:1011B0009FEF80EC089500240A941616170618066F
:1011C0000906089500240A9412161306140605064B
:1011D0000895092E0394000C11F4882352F0BB0FDC
:1011E00040F4BF2B11F460FF04C06F5F7F4F8F4F3F
:1011F0009F4F089557FD9058440F551F59F05F3F7A
:1012000071F04795880F97FB991F61F09F3F79F028
:1012100087950895121613061406551FF2CF4695AA
:10122000F1DF08C0161617061806991FF1CF86952C
:101230007105610508940895E894BB276627772710
:10124000CB0197F90895283008F027E03327DA0119
:10125000990F311D87FD916000966105710539F484
:1012600032602E5F3D9330E32A95E1F708959F3F6A
:1012700030F080387105610509F03C5F3C5F3D93BB
:10128000913008F08068911DDF93CF931F930F93E7
:10129000FF92EF92192F987F9695E92F9695969544
:1012A000E90FFF27EA59FD4F99273327EE24FF2442
:1012B000A701E70105900894079428F4360FE71E6C
:1012C000F81E491F511D660F771F881F991F06942E
:1012D000A1F70590079428F4E70EF81E491F561F42
:1012E000C11D770F881F991F661F0694A1F70590EF
:1012F000079428F4F80E491F561FC71FD11D880FE9
:10130000991F661F771F0694A1F70590079420F494
:10131000490F561FC71FD81F990F661F771F881FB9
:101320000694A9F784911095177041F0D695C7954A
:1013300057954795F794E7941A95C1F7ECE0F2E0DA
:1013400068941590159135916591959105907FE27E
:101350007395E118F10A430B560BC90BD009C0F77E
:10136000E10CF11E431F561FC91FD01D7EF47033C0
:1013700011F48A95E6CFE894015030F0080F0AF492
:101380000027021708F4202F2395022F7A3328F024
:1013900079E37D932A95E9F710C07D932A9589F624
:1013A000069497956795379517951794E118F10A64
:1013B000430B560BC90BD00998F023957E9173957A
:1013C0007A3308F070E37C932013B8F77E91706154
:1013D0007D9330F0839571E37D9370E32A95E1F777
:1013E0001124EF90FF900F911F91CF91DF919927DA
:1013F00087FD90950895911106C080538A5010F092
:10140000865C06C0089599278827089585FDFBCF3F
:1014100080629111F8CF81568A51E0F708959111B9
:10142000F2CF803219F089508550D0F7089591118C
:10143000089581548A5108F4805E855A0895FC010C
:101440000590615070400110D8F7809590958E0FEF
:101450009F1F0895FC018191861721F08823D9F7F9
:10146000992708953197CF010895FC01615070408C
:1014700001900110D8F7809590958E0F9F1F0895C9
:101480000F931F93CF93DF93182F092FEB018B81BD
:1014900081FD03C08FEF9FEF20C082FF10C04E81FF
:1014A0005F812C813D81421753077CF4E881F981EB
:1014B0009F012F5F3F4F28833983108306C0E88543
:1014C000F985812F1995892B29F72E813F812F5F6F
:1014D0003F4F2E833F83812F902FDF91CF911F911C
:1014E0000F9108950F931F93CF93DF93CDB7DEB77E
:1014F0002E97CDBFDEBF0E891F8986E08C830983BE
:101500001A838FEF9FE78D839E83AE01465E5F4F08
:10151000688D798DCE0101960E94A601EF81F88534
:10152000E00FF11F10822E96CDBFDEBFDF91CF916D
:101530001F910F910895FA01AA27283051F1203107
:1015400081F1E8946F936E7F6E5F7F4F8F4F9F4F57
:10155000AF4FB1E03ED0B4E03CD0670F781F891F99
:101560009A1FA11D680F791F8A1F911DA11D6A0F67
:10157000711D811D911DA11D20D009F468943F911A
:101580002AE0269F11243019305D3193DEF6CF0119
:101590000895462F4770405D4193B3E00FD0C9F7DF
:1015A000F6CF462F4F70405D4A3318F0495D31FD4C
:1015B0004052419302D0A9F7EACFB4E0A69597959F
:1015C000879577956795BA95C9F700976105710575
:1015D00008959B01AC010A2E0694579547953795BF
:1015E0002795BA95C9F7620F731F841F951FA01D19
:0615F0000895F894FFCFFE
:1015F60054215921000000000012071E075D21003A
:101606000000000012070607612100000000002A02
:1016160007000065210004007020000000006C2116
:1016260000050039200000000073210000000000C2
:10163600120706077B210000000000120706078339
:1016460021000000000012070607892100000000A3
:1016560000120706078E2100000000001207060789
:1016660095210000000000060772079E2100000079
:1016760000000607E207A32100000000001207068B
:1016860007AB2100000000001207AF075B53435071
:10169600495D204E6F20737562636F6D6D616E6478
:1016A6007321005B534350495D204E6F7420717562
:1016B60065727961626C6521005B534350495D2018
:1016C6004E6F742063616C6C61626C6521005B53C4
:1016D6004350495D20436F6D6D616E6420646F6594
:1016E60073206E6F742065786973742100515545B7
:1016F6005259204E4F542059455420494D504C457F
:101706004D454E5445442100434F4D4D414E4420D6
:101716004E4F542059455420494D504C454D454E49
:10172600544544210041475633204D61696E20637C
:101736006F6E74726F6C6C65722076302E31001B82
:101746005B324A004E554C4C0049444E004F5043C4
:1017560000434C520053454E536F72005359537415
:10176600656D00444953506C617900425554746F5D
:101776006E730053544152740053544F50005354E7
:10178600415475730044495354616E6365004C4976
:101796004E6500564F4C546167650042415474656E
:0C17A6007279002575200025660D0A00F0
:00000001FF
