:100000000C9483010C94A4010C94A4010C94A401FD
:100010000C94A4010C94A4010C94A4010C94A401CC
:100020000C94A4010C94A4010C94A4010C94A401BC
:100030000C94A4010C94A4010C94A4010C94A401AC
:100040000C94A4010C94A4010C94A4010C94A4019C
:100050000C94A4010C94A4010C94A4010C94A4018C
:100060000C94A4010C94A4010C94A4010C94A4017C
:100070000C94A4010C94A4010C94A4010C94A4016C
:100080000C94A4010C94A4010C94A4010C94A4015C
:100090000C94A4010C94A4010C94A4010C94A4014C
:1000A0000C94A4010C94A4010C94A4010C94A4013C
:1000B0000C94A4010C94A4010C94A4010C94A4012C
:1000C0000C94A4010C94A4010C94A4010C94A4011C
:1000D0000C94A4010C94A4010C94A4010C94A4010C
:1000E0000C94A4010C94A4010C94A4010C94A401FC
:1000F0000C94A4010C94A4010C94A4010C94A401EC
:100100000C94A4010C94A4010C94A4010C94A401DB
:100110000C94A4010C94A4010C94A4010C94A401CB
:100120000C94A4010C94A4010C94A4010C94A401BB
:100130000C94A4010C94A4010C94A4010C94A401AB
:100140000C94A4010C94A4010C94A4010C94A4019B
:100150000C94A4010C94A4010C94A4010C94A4018B
:100160000C94A4010C94A4010C94A4010C94A4017B
:100170000C94A4010C94A4010C94A4010C94A4016B
:100180000C94A4010C94A4010C94A4010C94A4015B
:100190000C94A4010C94A4010C94A4010C94A4014B
:1001A0000C94A4010C94A4010C94A4010C94A4013B
:1001B0000C94A4010C94A4010C94A4010C94A4012B
:1001C0000C94A4010C94A4010C94A4010C94A4011B
:1001D0000C94A4010C94A4010C94A4010C94A90502
:1001E0000C94A4010C94A4010C94F8070C94280717
:1001F0000C9488070C9434070C941C070C94C507C6
:100200000C9440076E616E00696E660000407A10C3
:10021000F35A00A0724E18090010A5D4E80000E8B7
:100220007648170000E40B54020000CA9A3B000015
:1002300000E1F505000080969800000040420F00A4
:100240000000A08601000000102700000000E80365
:10025000000000006400000000000A000000000030
:100260000100000000002C76D888DC674F0823DFEF
:10027000C1DFAE59E1B1B796E5E3E453C63AE651C2
:10028000997696E8E6C28426EB898C9B62ED407CE9
:100290006FFCEFBC9C9F40F2BAA56FA5F490055A85
:1002A0002AF75C936B6CF9676DC11BFCE0E40D47AA
:1002B000FEF520E6B500D0ED902E030094357705CD
:1002C0000080841E080000204E0A000000C80C3385
:1002D0003333330F986E12831141EF8D2114893B14
:1002E000E65516CFFEE6DB18D1844B381BF77C1D94
:1002F000901DA4BBE424203284725E228100C9F1E7
:1003000024ECA1E53D2711241FBECFEFCDBFDFE5D3
:10031000DEBF00E00CBF11E2A0E0B0E2E2E2F6E1F5
:1003200000E00BBF02C007900D92AE3BB107D9F7BA
:1003300022E2AEEBB1E201C01D92A13AB207E1F7B1
:100340000E94A2050C940F0B0C9400002F923F9278
:100350004F925F926F927F928F929F92AF92BF92D5
:10036000CF92DF92EF92FF920F931F93CF93DF9381
:10037000CDB7DEB76397CDBFDEBF7C011B016A013D
:10038000FC0116821782838181FF67C3BE016F5F04
:100390007F4F4B01F7019381F10193FD859193FF0D
:1003A00081911F01882309F454C3853239F493FDE8
:1003B000859193FF81911F01853239F4B70190E057
:1003C0000E94560A56016501E5CF10E0512C20E04D
:1003D0002032A0F48B3269F030F4803259F083324D
:1003E00069F420612CC08D3239F0803339F42160FA
:1003F00026C02260246023C0286021C027FD27C0BA
:1004000030ED380F3A3078F426FF06C0FAE01F9F2F
:10041000300D1124132F13C06AE0569E300D1124A5
:10042000532E20620CC08E3221F426FD12C32064AC
:1004300006C08C3611F4206802C0883641F4F10100
:1004400093FD859193FF81911F018111C1CF9BEB9A
:10045000980F933018F42061805E06C09BE9980FD6
:10046000933008F0ABC12F7E26FF16E02F73722E5B
:10047000853621F4F22FF0647F2E08C0863621F4F1
:10048000622F6068762E02C01111115077FE07C0EE
:100490001C3348F444244394410E27E00BC0183029
:1004A00030F4212F06C027E04CE3442E03C027E0A0
:1004B00017E0412C560174E0A70EB11CF6016081D3
:1004C000718182819381042DA4010E9439096C01FC
:1004D000098100FF02C003FF06C071FC07C072FC67
:1004E00008C0612C08C03DE2632E05C02BE2622EDD
:1004F00002C090E2692E802F8C70A1F1662011F06D
:1005000084E001C083E0851510F0512C0CC0581A0E
:1005100073FC09C0B70180E290E00E94560A5A9429
:100520005110F8CFF2CF662029F0B701862D90E068
:100530000E94560A03FD03C008E012E002C004E076
:1005400012E0F72DF0717F2EF8018491882309F4D1
:1005500076C271108052B70190E00E94560A0F5F78
:100560001F4FF2CF77FE0FC04C0C04FF04C08A81EE
:10057000813309F44A94141474F5F8E0F41578F50D
:1005800088E0482E2CC076FC2AC0812F90E08C1584
:100590009D059CF06CEFC6166FEFD60674F0772DB4
:1005A0007068772E0AC0E2E0F0E0EC0FFD1FE10F6B
:1005B000F11D8081803319F411501111F4CF77FEB1
:1005C0000EC044244394410E812F90E0C816D906F2
:1005D0002CF41C1904C04424439401C010E077FE9D
:1005E00007C01C141D043CF496012F5F3F4F05C04B
:1005F00025E030E002C021E030E0662011F02F5FFE
:100600003F4F112331F0412F50E04F5F5F4F240FD8
:10061000351F452D50E02417350714F4521A01C038
:10062000512C872D897049F4552039F0B70180E2AB
:1006300090E00E94560A5A94F7CF662029F0B7013D
:10064000862D90E00E94560A73FC09C0552039F0AF
:10065000B70180E390E00E94560A5A94F7CF77FEE4
:100660005FC09C2D8D2DD7FE02C090E080E0692EEA
:10067000782E40E050E0C601841991098C879D874F
:10068000960126193709280D391D812F90E0EE2794
:10069000FF27E81BF90BEE87FF87FFEF6F167F063A
:1006A00069F4B7018EE290E02B8B3A8B488B598B23
:1006B0000E94560A598948893A892B89C614D70459
:1006C00054F06C857D85661577052CF4F901E40FEF
:1006D000F51F818101C080E371E0671A71084F5FE7
:1006E0005F4FEE85FF856E167F066CF0B70190E0D8
:1006F0002B8B3A8B488B598B0E94560A2B893A894F
:1007000048895989CACF6C147D0439F49A8196338B
:1007100018F4953311F404FF81E3B70190E04BC066
:100720008A81813309F00F7EB70190E00E94560A5A
:10073000111105C074FE18C085E490E017C0B70120
:100740008EE290E00E94560A82E066246394680E6E
:10075000F401E80FF11D8081B70190E00E94560A74
:10076000115041F3862DF1CF85E690E0B7010E944C
:10077000560AD7FC05C0C114D10439F404FF05C0E2
:10078000D194C194D1088DE201C08BE2B70190E011
:100790000E94560A80E36AE0C616D1042CF08F5FEF
:1007A000FAE0CF1AD108F7CFB70190E00E94560ABD
:1007B000B701C601C0960E94560A41C1833631F086
:1007C000833779F0833509F058C021C0560172E0B3
:1007D000A70EB11CF6018081898301E010E064015D
:1007E00014C05601F2E0AF0EB11CF601C080D180FA
:1007F00026FF03C0612F70E002C06FEF7FEFC601DC
:100800002B8B0E944B0A8C012B892F7715C0560128
:10081000F2E0AF0EB11CF601C080D18026FF03C00C
:10082000612F70E002C06FEF7FEFC6012B8B0E943B
:10083000350A8C012B892068722E23FD1AC0852D64
:1008400090E008171907A8F4B70180E290E00E9431
:10085000560A5A94F4CFF60177FC859177FE819180
:100860006F01B70190E00E94560A51105A9401504E
:1008700011090115110579F7E2C0843611F08936A6
:1008800051F5560127FF09C0F4E0AF0EB11CF60187
:1008900060817181828193810AC0F2E0AF0EB11C48
:1008A000F60160817181882777FD8095982F022F4E
:1008B0000F7697FF08C090958095709561957F4F52
:1008C0008F4F9F4F00682AE030E0A4010E94B10AD8
:1008D000C82EC8183EC0022F853721F40F7E2AE0AB
:1008E00030E01DC0097F8F3691F018F4883559F03B
:1008F000B0C0803719F0883711F0ABC0006104FF39
:1009000009C0046007C024FF08C0066006C028E0D4
:1009100030E005C020E130E002C020E132E05601C5
:1009200007FF09C0F4E0AF0EB11CF60160817181D0
:100930008281938108C0F2E0AF0EB11CF6016081A4
:10094000718180E090E0A4010E94B10AC82EC8180D
:100950000F7706FF0BC0202F2E7FC11650F404FF27
:100960000AC002FD08C0202F2E7E05C0DC2C202FDF
:1009700003C0DC2C01C0D12E24FF0DC0FE01EC0D04
:10098000F11D8081803311F4297E09C022FF06C049
:10099000D394D39404C0822F867809F0D39423FD96
:1009A00013C020FF06C01C2DD51418F4150D1D19F9
:1009B000D52CD51468F4B70180E290E02B8B0E940F
:1009C000560AD3942B89F5CFD51410F45D1801C0C5
:1009D000512C24FF12C0B70180E390E02B8B0E94C2
:1009E000560A2B8922FF17C021FF03C088E590E03B
:1009F00002C088E790E0B7010CC0822F867859F0DA
:100A000021FD02C080E201C08BE227FD8DE2B7012B
:100A100090E00E94560AC11638F4B70180E390E0D6
:100A20000E94560A1150F7CFCA94F401EC0DF11D43
:100A30008081B70190E00E94560AC110F5CF552081
:100A400009F4C1CCB70180E290E00E94560A5A94A2
:100A5000F6CFF7018681978102C08FEF9FEF6396F3
:100A6000CDBFDEBFDF91CF911F910F91FF90EF902F
:100A7000DF90CF90BF90AF909F908F907F906F90BE
:100A80005F904F903F902F90089588ED84BF82E053
:100A9000809350008091510081FFFCCF88ED84BF8E
:100AA00081E08093400008959091A10B95FFFCCFC9
:100AB0008093A00B0895CF93DF93EC018991882355
:100AC00019F00E945405FACFDF91CF9108950C944C
:100AD0005B05E0EAFBE080ED878383E8868383E0C3
:100AE000858380E1838388E1848388E0E0EAF6E01F
:100AF0008183089587E0E0EAF0E0828378940E94A1
:100B000069050E945407E0E0F6E081E08183858377
:100B10002FEF83EC99E0215080409040E1F700C036
:100B2000000081E0868308958091BE21882349F0EA
:100B300081EC91E20E9416071092BE2181E0809321
:100B4000070608950E9445050E947A050E949405B3
:100B5000FDCF1F920F920FB60F9211240BB60F927A
:100B60008F939F93EF93FF939091A00B8091BE2161
:100B700081111AC08091C021E82FF0E0EF53FE4DA3
:100B800090839A3049F4108281E08093BE211092C4
:100B9000BF211092C02108C08F5F8093C021809137
:100BA000BF218F5F8093BF21FF91EF919F918F9124
:100BB0000F900BBE0F900FBE0F901F9018950F93C4
:100BC0001F93CF93DF93EC018E012196F801808172
:100BD000992787FD90950E94250A892BA9F7C801BE
:100BE000DF91CF911F910F910895BF92CF92DF9225
:100BF000EF92FF920F931F93CF93DF937B01EC0152
:100C00008E01F701B1907F01BB2021F12196F801FF
:100C10008081992787FD90950E942D0AC82EDD249A
:100C2000C7FCD094C6010E94110A2B2D332727FD43
:100C30003095892B41F4C9010E941F0A892BF1F4D8
:100C400080E090E01EC0C9010E942D0AC816D90696
:100C5000B9F2F6CF1881812F992787FD90950E94D0
:100C6000250A892B69F486EC810F823048F01F3306
:100C700039F0112329F01D3019F702C0C80101C055
:100C8000CE01DF91CF911F910F91FF90EF90DF90F8
:100C9000CF90BF9008956BE370E00C94400A0E94DF
:100CA00067058BEB91E20C9467054F925F926F9210
:100CB0007F928F929F92AF92BF92CF92DF92EF92EC
:100CC000FF920F931F93CF93DF935B01542E452E1A
:100CD0000E94DF058C01DC018C91882309F495C00A
:100CE0008A33A1F4C8010196DF91CF911F910F9132
:100CF000FF90EF90DF90CF90BF90AF909F908F903C
:100D00007F906F905F904F900C9416078A3241F459
:100D10000F5F1F4F82E090E223E0C22ED12C03C070
:100D2000C501C52CD42C4C01612C712C6C147D0494
:100D30000CF050C07401F40160817181C8010E94FF
:100D4000F505EC01FBE08F0E911C009721F48FEF6D
:100D5000681A780AEBCF88818A3399F4CE0101961C
:100D6000D7011596AD90BC901697A114B10431F03F
:100D700013965C90139714964C90AACF8CE990E24E
:100D800032C08F3381F42196CE010E94DF05D70156
:100D90001996ED91FC911A97309779F483EB90E2D4
:100DA0000E944F060DC0CE010E94DF05D7011796A5
:100DB000ED91FC911897309731F0CE011995EC0127
:100DC000209729F422C089EC90E20E944F06CE01C0
:100DD00001967ECF8EED90E20E944F06C8010E94E0
:100DE00067058EEE90E2DF91CF911F910F91FF90FA
:100DF000EF90DF90CF90BF90AF909F908F907F90BB
:100E00006F905F904F900C944F06DF91CF911F91A0
:100E10000F91FF90EF90DF90CF90BF90AF909F9099
:100E20008F907F906F905F904F90089542E050E0D8
:100E300063E270E20C945506CF93DF93EC018FEFE1
:100E400090E20E944F06CE01DF91CF910C944B06A9
:100E5000CF93DF93EC018AE191E20E944F06CE012D
:100E6000DF91CF910C944B06CF93DF93EC0187E396
:100E700091E20E944F06CE01DF91CF910C944B0678
:100E8000CF93DF93EC0181E591E20E944F06CE0102
:100E9000DF91CF910C944B0622E02093CA01FC0114
:100EA00084911092CA0108951F93CF93DF93C0E0FD
:100EB000D2E011E01883198287E08C8380E290E011
:100EC0000E944C078C8781E290E00E944C078D873E
:100ED0001A8218A319A21AA2DF91CF911F91089527
:100EE000880F880F880F80932102809120028068EC
:100EF00080932002809106028823E1F3809106020C
:100F000081608093060280911002909111020895F1
:100F1000CF92DF92EF92FF920F931F93CF93DF93C5
:100F20001F92CDB7DEB77C0121E005EB11E281E82D
:100F3000C82E82E2D82E822F29830E9470079F93A9
:100F40008F931F930F93DF92CF920E94880A81E8BC
:100F500092E20E94670529812F5F0F900F900F90FA
:100F60000F900F900F90243031F78BEB91E20E949D
:100F70006705C7010F90DF91CF911F910F91FF90EF
:100F8000EF90DF90CF900C944B06CF93DF93EC0162
:100F900085E00E947007BC0180E090E00E94480854
:100FA00020E030E040E859E30E94850823E333E382
:100FB0004BEE51E40E9485089F938F937F936F932C
:100FC00089EB91E29F938F9381E692E29F938F93B7
:100FD0000E94880A81E692E20E9467058DB79EB75B
:100FE00008968DBF9EBFCE01DF91CF910C944B062A
:100FF000BF92CF92DF92EF92FF920F931F93CF9306
:10100000DF936C0180EE8093A106C0E0D0E030EE6B
:10101000B32E45EBE42E41E2F42E01E412E2CE01C0
:1010200025E0880F991F2A95E1F7B092A6068093D4
:10103000A5068FE193E00197F1F700C0000086E07C
:101040000E9470079F938F93FF92EF921F930F93CD
:101050000E94880A81E492E20E94670521960F901F
:101060000F900F900F900F900F90C830D105B9F6E8
:101070008BEB91E20E946705C601DF91CF911F9132
:101080000F91FF90EF90DF90CF90BF900C944B06A4
:10109000E89409C097FB3EF4909580957095619512
:1010A0007F4F8F4F9F4F9923A9F0F92F96E9BB27C8
:1010B0009395F695879577956795B795F111F8CF44
:1010C000FAF4BB0F11F460FF1BC06F5F7F4F8F4FAF
:1010D0009F4F16C0882311F096E911C0772321F0A5
:1010E0009EE8872F762F05C0662371F096E8862F3D
:1010F00070E060E02AF09A95660F771F881FDAF794
:10110000880F9695879597F908950BD078C069D088
:1011100028F06ED018F0952309F05AC05FC0112452
:10112000A2C07ED0A0F3959FD1F3950F50E0551F3C
:10113000629FF001729FBB27F00DB11D639FAA272C
:10114000F00DB11DAA1F649F6627B00DA11D661F7B
:10115000829F2227B00DA11D621F739FB00DA11D9C
:10116000621F839FA00D611D221F749F3327A00D56
:10117000611D231F849F600D211D822F762F6A2FF2
:1011800011249F5750408AF0E1F088234AF0EE0F77
:10119000FF1FBB1F661F771F881F91505040A9F784
:1011A0009E3F510570F014C05EC05F3FECF3983E67
:1011B000DCF3869577956795B795F795E7959F5FEB
:1011C000C1F7FE2B880F911D9695879597F9089585
:1011D00097F99F6780E870E060E008959FEF80ECEA
:1011E000089500240A94161617061806090608958D
:1011F00000240A9412161306140605060895092EF3
:101200000394000C11F4882352F0BB0F40F4BF2B61
:1012100011F460FF04C06F5F7F4F8F4F9F4F0895A1
:1012200057FD9058440F551F59F05F3F71F0479597
:10123000880F97FB991F61F09F3F79F0879508957C
:10124000121613061406551FF2CF4695F1DF08C09B
:10125000161617061806991FF1CF869571056105B8
:1012600008940895E894BB2766277727CB0197F960
:101270000895283008F027E03327DA01990F311D4F
:1012800087FD916000966105710539F432602E5F2B
:101290003D9330E32A95E1F708959F3F30F0803881
:1012A0007105610509F03C5F3C5F3D93913008F0AA
:1012B0008068911DDF93CF931F930F93FF92EF925E
:1012C000192F987F9695E92F96959695E90FFF2708
:1012D000EA59FD4F99273327EE24FF24A701E701A0
:1012E00005900894079428F4360FE71EF81E491F4E
:1012F000511D660F771F881F991F0694A1F705904F
:10130000079428F4E70EF81E491F561FC11D770FDA
:10131000881F991F661F0694A1F70590079428F46B
:10132000F80E491F561FC71FD11D880F991F661F32
:10133000771F0694A1F70590079420F4490F561FD4
:10134000C71FD81F990F661F771F881F0694A9F71C
:1013500084911095177041F0D695C795579547958C
:10136000F794E7941A95C1F7ECE0F2E068941590D1
:10137000159135916591959105907FE27395E118EE
:10138000F10A430B560BC90BD009C0F7E10CF11E53
:10139000431F561FC91FD01D7EF4703311F48A9568
:1013A000E6CFE894015030F0080F0AF40027021746
:1013B00008F4202F2395022F7A3328F079E37D93C8
:1013C0002A95E9F710C07D932A9589F6069497959A
:1013D0006795379517951794E118F10A430B560B4B
:1013E000C90BD00998F023957E9173957A3308F054
:1013F00070E37C932013B8F77E9170617D9330F099
:10140000839571E37D9370E32A95E1F71124EF90C2
:10141000FF900F911F91CF91DF91992787FD9095B4
:101420000895911106C080538A5010F0865C06C062
:10143000089599278827089585FDFBCF8062911133
:10144000F8CF81568A51E0F708959111F2CF80329A
:1014500019F089508550D0F708959111089581545D
:101460008A5108F4805E855A0895FC010590615008
:1014700070400110D8F7809590958E0F9F1F0895AA
:10148000FC018191861721F08823D9F799270895C7
:101490003197CF010895FC01615070400190011017
:1014A000D8F7809590958E0F9F1F08950F931F93E7
:1014B000CF93DF93182F092FEB018B8181FD03C0A0
:1014C0008FEF9FEF20C082FF10C04E815F812C8183
:1014D0003D81421753077CF4E881F9819F012F5F1A
:1014E0003F4F28833983108306C0E885F985812F13
:1014F0001995892B29F72E813F812F5F3F4F2E832E
:101500003F83812F902FDF91CF911F910F910895ED
:101510000F931F93CF93DF93CDB7DEB72E97CDBF39
:10152000DEBF0E891F8986E08C8309831A838FEFC3
:101530009FE78D839E83AE01465E5F4F688D798DF8
:10154000CE0101960E94A601EF81F885E00FF11F00
:1015500010822E96CDBFDEBFDF91CF911F910F91EC
:101560000895FA01AA27283051F1203181F1E89439
:101570006F936E7F6E5F7F4F8F4F9F4FAF4FB1E086
:101580003ED0B4E03CD0670F781F891F9A1FA11D81
:10159000680F791F8A1F911DA11D6A0F711D811D82
:1015A000911DA11D20D009F468943F912AE0269F47
:1015B00011243019305D3193DEF6CF010895462FA6
:1015C0004770405D4193B3E00FD0C9F7F6CF462F87
:1015D0004F70405D4A3318F0495D31FD40524193F0
:1015E00002D0A9F7EACFB4E0A695979587957795AD
:1015F0006795BA95C9F700976105710508959B0134
:10160000AC010A2E06945795479537952795BA95BC
:10161000C9F7620F731F841F951FA01D0895F894CA
:02162000FFCFFA
:1016220056215B210000000000280734075F2100DB
:101632000000000028071C07632100000000004092
:1016420007000067210004007020000000006E21E6
:101652000005003920000000007521000000000094
:1016620028071C077D21000000000028071C0785B1
:1016720021000000000028071C078B210000000049
:101682000028071C079021000000000028071C0703
:10169200972100000000001C078807A0210000001D
:1016A20000001C07F807A521000000000028071C05
:1016B20007AD2100000000002807C5075B53435017
:1016C200495D204E6F20737562636F6D6D616E644C
:1016D2007321005B534350495D204E6F7420717536
:1016E20065727961626C6521005B534350495D20EC
:1016F2004E6F742063616C6C61626C6521005B5398
:101702004350495D20436F6D6D616E64200020641B
:101712006F6573206E6F7420657869737421005150
:1017220055455259204E4F542059455420494D5049
:101732004C454D454E5445442100434F4D4D414E7D
:1017420044204E4F542059455420494D504C454D4C
:10175200454E544544210041475633204D61696E40
:1017620020636F6E74726F6C6C65722076302E31EE
:10177200001B5B324A004E554C4C0049444E004F10
:10178200504300434C520053454E536F720053591D
:101792005374656D00444953506C6179004255544D
:1017A200746F6E730053544152740053544F50007F
:1017B2005354415475730044495354616E63650038
:1017C2004C494E6500564F4C546167650042415486
:0E17D20074657279002575200025660D0A00E9
:00000001FF
