:100000000C9453010C9470010C9470010C947001C9
:100010000C9470010C9470010C9470010C9470019C
:100020000C9470010C9470010C9470010C9470018C
:100030000C9470010C9470010C9470010C9470017C
:100040000C9470010C9470010C9470010C9470016C
:100050000C9470010C9470010C9470010C9470015C
:100060000C9470010C9470010C9470010C9470014C
:100070000C9470010C9470010C9470010C9470013C
:100080000C9470010C9470010C9470010C9470012C
:100090000C9470010C9470010C9470010C9470011C
:1000A0000C9470010C9470010C9470010C9470010C
:1000B0000C9470010C9470010C9470010C947001FC
:1000C0000C9470010C9470010C9470010C947001EC
:1000D0000C9470010C9470010C9470010C947001DC
:1000E0000C9470010C9470010C94C9010C94700173
:1000F0000C9470010C9470010C9470010C947001BC
:100100000C9470010C9470010C9470010C947001AB
:100110000C9470010C9470010C9470010C9470019B
:100120000C9470010C9470010C9470010C9470018B
:100130000C9470010C9470010C9470010C9470017B
:100140000C9470010C9470010C9470010C9470016B
:100150000C9470010C9470010C9470010C9470015B
:100160000C9470010C9470010C9470010C9470014B
:100170000C9470010C9470010C9470010C9470013B
:100180000C9470010C9470010C9470010C9470012B
:100190000C9470010C9470010C9470010C9470011B
:1001A0000C9470010C9470010C9470010C9470010B
:1001B0000C9470010C9470010C9470010C947001FB
:1001C0000C9470010C9470010C9470010C947001EB
:1001D0000C9470010C9470010C9470010C947001DB
:1001E0000C9470010C9470010C9470010C947001CB
:1001F0000C9470010C9426060C947001DE09060A1A
:10020000D80A060AD80A490A600AD80AB00ABB0AFC
:100210002403410047005600330020004D006F00CA
:1002200074006F00720020004400720069007600C4
:100230006500720000001A034700500041002000D2
:1002400052006F0062006F00740069006300730069
:1002500000000403090409023E00020100C0320943
:100260000400000102020100052400100104240220
:10027000060524060001070582030800FF090401A2
:1002800000020A00000007050402100005070583AC
:10029000021000051201100102000008EB034420C7
:1002A00002000102DC0111241FBECFEFCDBFDFE24F
:1002B000DEBF12E2A0E0B0E2E8E1FEE102C005909C
:1002C0000D92AC33B107D9F725E2ACE3B2E201C03D
:1002D0001D92A938B207E1F70E9455020C940A0F4B
:1002E0000C9400009091A10A95FFFCCF8093A00A86
:1002F000682F80E090E20C94100BCF93DF93EC0119
:100300008991882319F00E947201FACFDF91CF9171
:1003100008950E947D018DE00E9472018AE00C9494
:100320007201E0EAFAE080ED878383E8868383E068
:10033000858380E1838388E18483E0E8F6E098E0C8
:100340009183828B089590917D22E92FF0E0E35C08
:10035000FD4D8083883031F4992391F09150909332
:100360007D2208958D3051F410828DE392E20E9437
:100370001B0310923C2210927D2208959F3340F47B
:100380009F5F90937D2280913C228F5F80933C22DF
:1003900008951F920F920FB60F9211242F933F933F
:1003A0004F935F936F937F938F939F93AF93BF937D
:1003B000EF93FF938091A00A0E94A301FF91EF9118
:1003C000BF91AF919F918F917F916F915F914F916D
:1003D0003F912F910F900FBE0F901F90189580E1C5
:1003E00080935500809150008061809350008091EF
:1003F000510084FFFCCF2FB7F89434E088ED90E0F3
:10040000A0E4B0E01BBEFD0184BF30832FBF8FE3AB
:100410009FE10197F1F700C00000809140008091BA
:1004200050008260809350008091510081FFFCCF8A
:10043000809156008460809356008BE18093650024
:1004400087EB8093660082E08093CA01EDE1F0E0E3
:10045000E491E0936200ECE1F0E0E491E09363006A
:100460001092CA0181E08093600087E08093A2002F
:1004700078940E9491010E94100480E090E00E9414
:10048000160460ED77E080E00E94360461E080E0D1
:100490000E94520460ED77E081E00E94360461E042
:1004A00081E00E9452040C94F0050E94EF016EE777
:1004B00072E280E090E20E94560C789480E090E234
:1004C0000E94AC0B892B39F080E090E20E94F60B81
:1004D0000E94A301F3CF80E090E20E948E0B0E9465
:1004E0009506ECCF0895089580E090E20C94E80A18
:1004F00080E090E20C946A0C0895292F3327223073
:10050000310559F02330310569F021303105F9F416
:1005100082E190E024E932E01EC08EE390E026E51F
:1005200032E019C099278130910541F08230910560
:1005300041F0892B61F4E2E5F2E005C0E6E3F2E088
:1005400002C0E0E1F2E0849190E09F0104C080E00D
:1005500090E020E030E0FA012083318308950F938A
:100560001F93CF93DF93EC018E012196F8018081D8
:10057000992787FD90950E94540E892BA9F7C801F1
:10058000DF91CF911F910F910895BF92CF92DF928B
:10059000EF92FF920F931F93CF93DF937B01EC01B8
:1005A0008E01F701B1907F01BB2021F12196F80166
:1005B0008081992787FD90950E945C0EC82EDD24CE
:1005C000C7FCD094C6010E94400E2B2D332727FD77
:1005D0003095892B41F4C9010E944E0E892BF1F40C
:1005E00080E090E01EC0C9010E945C0EC816D906CA
:1005F000B9F2F6CF1881812F992787FD90950E9437
:10060000540E892B69F486EC810F823048F01F3339
:1006100039F0112329F01D3019F702C0C80101C0BB
:10062000CE01DF91CF911F910F91FF90EF90DF905E
:10063000CF90BF90089543E050E06EE370E20C94D9
:1006400021034F925F926F927F928F929F92AF920F
:10065000BF92CF92DF92EF92FF920F931F93CF93AF
:10066000DF935B01542E452E0E94AF027C01DC011A
:100670008C91882309F48FC08A33A1F4C7010196B5
:10068000DF91CF911F910F91FF90EF90DF90CF906E
:10069000BF90AF909F908F907F906F905F904F90A2
:1006A0000C941B038A3249F4BFEFEB1AFB0A8DE16D
:1006B00090E223E0C22ED12C03C0C501C52CD42C5E
:1006C0004C01612C712C6C147D040CF050C0840121
:1006D000F40160817181C7010E94C502EC01FBE059
:1006E0008F0E911C009721F48FEF681A780AEBCFD8
:1006F00088818A3399F4CE010196D8011596AD9080
:10070000BC901697A114B10431F013965C90139726
:1007100014964C90A9CF8CED90E22BC08F3381F4CE
:100720002196CE010E94AF02D8011996ED91FC915D
:100730001A97309779F483EF90E20E9489010DC0F7
:10074000CE010E94AF02D8011796ED91FC91189747
:10075000309731F0CE010995EC01209729F41BC0A8
:1007600089E091E20E948901CE0101967DCF8EE160
:1007700091E2DF91CF911F910F91FF90EF90DF9069
:10078000CF90BF90AF909F908F907F906F905F9031
:100790004F900C948901DF91CF911F910F91FF90A1
:1007A000EF90DF90CF90BF90AF909F908F907F9011
:1007B0006F905F904F9008956BE370E00C94640E1F
:1007C000CF93DF93EC018DE391E20E948901CE018A
:1007D000DF91CF910C94DC03CF93DF93EC0188E59C
:1007E00091E20E948901CE01DF91CF910C94DC034C
:1007F000CF93DF93EC0185E791E20E948901CE015E
:10080000DF91CF910C94DC03CF93DF93EC018CE864
:1008100091E20E948901CE01DF91CF910C94DC031B
:10082000E0E4F6E08FEF80831482089510928C222A
:1008300010928D22E0E0F8E080ED97E086A397A388
:10084000818183608183808181608083E0E8F8E03A
:1008500080818F6080830895E0E8F8E08081807F68
:100860008083E0E0F8E080818083089581110DC0ED
:100870006093DA207093DB20609328087093290836
:1008800060932A0870932B0808956093D820709382
:10089000D92060932C0870932D0860932E087093D4
:1008A0002F080895CF93DF9300D0CDB7DEB76A83CA
:1008B00089830E942C0489816A8181112AC08091D8
:1008C0008C08807F80938C0880914406807F809381
:1008D000440680918C08662339F0836080938C08ED
:1008E00080914406846006C08C6080938C0880915F
:1008F00044068160809344068091DA209091DB2049
:10090000809328089093290880932A0890932B08B5
:1009100029C080918C088F7080938C088091440648
:100920008F708093440680918C08662339F0806331
:1009300080938C0880914406806406C0806C80930C
:100940008C08809144068061809344068091D82071
:100950009091D92080932C0890932D0880932E0895
:1009600090932F0880E090E00F900F90DF91CF914F
:100970000C941604FF920F931F93CF93DF93EC0117
:100980008881FC2E0D2F1991112389F0992787FD5D
:1009900090950E94540E892B69F0812F992787FD2D
:1009A00090950E94540E892B29F41B3329F480E082
:1009B00090E004C0812FE5CF8F2D902FDF91CF9154
:1009C0001F910F91FF900895CF92DF92EF92FF92C7
:1009D000CF93DF93EC014AE050E060E070E00E94CA
:1009E0002C0D6B017C0181EDC81687E0D80658F408
:1009F00084E791E20E94890160ED77E06C197D093E
:100A000080E00E943604CE01DF91CF91FF90EF90FD
:100A1000DF90CF900C94DC03CF92DF92EF92FF92A5
:100A2000CF93DF93EC014AE050E060E070E00E9479
:100A30002C0D6B017C0181EDC81687E0D80628F0EB
:100A400080EF91E20E9489010BC084E791E20E944D
:100A5000890160ED77E06C197D0981E00E94360420
:100A6000CE01DF91CF91FF90EF90DF90CF900C946B
:100A7000DC030F931F93CF93DF938C010E94BA0482
:100A8000EC016FEF71E20E946F0EC817D90731F4C5
:100A900084E092E20E94890161E00DC063E172E2AC
:100AA000CE010E946F0EC817D90749F488E192E27F
:100AB0000E94890160E080E00E94520404C088E244
:100AC00092E20E948901C801DF91CF911F910F919D
:100AD0000C94DC030F931F93CF93DF938C010E9440
:100AE000BA04EC016FEF71E20E946F0EC817D907CC
:100AF00031F484E092E20E94890161E00DC063E17B
:100B000072E2CE010E946F0EC817D90749F488E13E
:100B100092E20E94890160E081E00E94520404C0D8
:100B200088E292E20E948901C801DF91CF911F9172
:100B30000F910C94DC030F931F93CF93DF93CDB7EA
:100B4000DEB76097CDBFDEBF8C01E0E8F8E08485BA
:100B500040E1BE016F5F7F4F90E00E94890ECE01A1
:100B600001960E948901C8010E94DC036096CDBFF6
:100B7000DEBFDF91CF911F910F910895CF93DF9347
:100B8000E0E4F0E014828481836084830E9419068B
:100B90000E942006C0ECD4E088818F77888388810A
:100BA000806888831092E222109284251092862514
:100BB0001092852588818064888348E068E480E815
:100BC0000E949D0748E068E480E00E949D078885B8
:100BD00080648887898181608983DF91CF910895BE
:100BE0002FB7F89482E0E0ECF1E08287EAE1F0E0F0
:100BF000E491A0ECB4E0DA96EC93DA97EBE1F0E064
:100C0000E491DB96EC93DB97E0ECF1E012868FE861
:100C100092E28E7F16968D939C93179784E18C9326
:100C200083E018968C932FBF81E08093E1220C948F
:100C3000BE05E0ECF4E0808583708087118608951E
:100C4000E0ECF4E08FEF8287848708951F920F9283
:100C50000FB60F9211242F933F934F935F936F938F
:100C60007F938F939F93AF93BF93EF93FF93809165
:100C7000CA0487FF09C08091C80487FF05C080E8C7
:100C80008093CA040E9494068091CA0486FF07C01C
:100C900080E48093CA041092E2220E947302809141
:100CA000CA0485FF14C080E28093CA048091842521
:100CB000882311F084E007C08091C304882311F0D9
:100CC00083E001C081E08093E2220E947202809161
:100CD000CA0484FF18C080E18093CA0482E0809334
:100CE000E222109284251092C3040E94310848E049
:100CF00068E480E80E949D0748E068E480E00E9484
:100D00009D070E949406FF91EF91BF91AF919F9133
:100D10008F917F916F915F914F913F912F910F90A4
:100D20000FBE0F901F9018950895CF938091E222E7
:100D3000882371F0C091EF2280E00E94EC060E94AF
:100D4000410781110E94B4098C2FCF910C94EC06BD
:100D5000CF910895E091ED22F091EE22A091EB2247
:100D6000B091EC22AF5BBF4F8C9190E08283938374
:100D700080818D7980831C920895E091ED22F0911D
:100D8000EE2280818D798083E091EB22F091EC223C
:100D9000EF5BFF4F108208958091EB229091EC223F
:100DA000FC01EF5BFF4F208131E0320F3083FC010B
:100DB000E20FF11D808108952091EB223091EC2209
:100DC000F901EF5BFF4F908141E0490F4083F9014A
:100DD000E90FF11D808308958093EF22482F4F7013
:100DE00094E8499F9001112420513D4D6091C60423
:100DF0007091C70490E1499FA001112487FF0FC0A3
:100E00002E5B3F4F2093EB223093EC22CA010896D1
:100E1000860F971F8093ED229093EE2208952093E2
:100E2000EB223093EC22460F571F4093ED22509354
:100E3000EE2208958091EF2280680E94EC06E091F6
:100E4000ED22F091EE228081869581700895809147
:100E5000EF228F770E94EC06E091ED22F091EE22D6
:100E6000808185FF0CC02091EB223091EC228281A1
:100E70009381F901E05CFF4F808381E0089580E079
:100E800008958091EF228F770E94EC06E091ED2289
:100E9000F091EE22808184FF0CC02091EB223091F2
:100EA000EC2282819381F901E05CFF4F808381E035
:100EB000089580E008958091EF228F770E94EC06DC
:100EC000E091ED22F091EE2280818D788083808107
:100ED00081608083E091EB22F091EC22EF5BFF4F89
:100EE00010828091EF2280680E94EC06E091ED2252
:100EF000F091EE22808181608083E091EB22F0917D
:100F0000EC22EF5BFF4F10820895E091ED22F0910B
:100F1000EE228181846081838181807C803461F4D0
:100F20008091EF2280580E94EC06E091ED22F09132
:100F3000EE2281818460818308951F93CF93DF9394
:100F400000D0CDB7DEB7182F4A8369830E94EC0624
:100F5000E091ED22F091EE221182812F881F8827E7
:100F6000881F880F80836981618312821382209198
:100F7000EB223091EC2224833583110F110B4A812F
:100F80001423F901E05CFF4F10833196108281E059
:100F90000F900F90DF91CF911F910895CF92DF9224
:100FA000EF92FF920F931F93CF93DF9300D0CDB7B3
:100FB000DEB7E62E6C01F12CFE1409F446C0F601F2
:100FC00090819923E9F1018112818381248122306A
:100FD00010F058E101C058E028E030E040E0201770
:100FE000310720F44F5F220F331FF9CF452B292FF4
:100FF0002F7030E02530310514F080E027C0242F19
:101000002F7E01341105C8F7882321F0813021F4A7
:10101000206C0FC0206403C0206881110AC0402FDB
:10102000622F80E8890F2A8399830E949D07998106
:101030002A81402F622F892F0E949D078823E9F281
:10104000F394F5E0CF0ED11CB7CF81E00F900F9055
:10105000DF91CF911F910F91FF90EF90DF90CF9094
:10106000089580E090E0E091C604F091C7049C01EF
:1010700074E0220F331F7A95E1F7E20FF31F118618
:10108000E091C604F091C704E20FF31F11820196AC
:101090008530910541F708958091E32287FD05C0D1
:1010A0000E941A07882361F010C00E94270781114F
:1010B00005C08091E2228111F8CF08950C94BD06FD
:1010C0008091E2228111ECCF08950C94AA061F931F
:1010D000CF93DF93E091C604F091C704E05BFF4F2C
:1010E000C081D18114E68091EF228078803859F454
:1010F0000E941A07811105C08091E222811106C069
:1011000022C080E025C00E942707F4CF8530E9F097
:10111000E091ED22F091EE22818182FD18C0E091F4
:10112000C604F091C704E05BFF4F808191818C176A
:101130009D07C9F22FEF210F112319F0EC01122F97
:10114000D2CF84E005C082E003C083E001C081E02B
:10115000DF91CF911F910895DF92EF92FF920F934D
:101160001F93CF93DF93182F092FEB018091EF226C
:1011700080680E94EC062091E9223091EA222C1727
:101180003D0728F0209721F40E94AA0601C0E9013A
:10119000E12EF02ED12C209709F445C08091E22257
:1011A000811102C082E053C0853011F483E04FC04A
:1011B0000E944107882311F081E049C00E9427075F
:1011C000811140C00E941A07882329F32091EF2241
:1011D0008091EB229091EC22FC0127FF05C0EF5B90
:1011E000FF4F008110E014C0E05CFF4F008131969A
:1011F000808110E0081B11090BC00830110550F464
:10120000F70181917F010E94DC0621970F5F1F4F3C
:10121000209799F7DD24D3940830110509F0D12CDB
:101220000E94AA06B8CFD110B9CF0CC08091E2229B
:10123000882309F4B7CF853009F4B8CF0E9441075D
:101240008111BACF0E942707882381F380E0DF91C4
:10125000CF911F910F91FF90EF90DF900895DF9253
:10126000EF92FF920F931F93CF93DF93182F092FC5
:10127000EB018091EF2280680E94EC062091E92228
:101280003091EA222C173D0728F0209721F40E9484
:10129000AA0601C0E901E12EF02ED12C209709F415
:1012A00047C08091E222811102C082E055C08530A2
:1012B00011F483E051C00E944107882311F081E0BE
:1012C0004BC00E942707811142C00E941A07882341
:1012D00029F32091EF228091EB229091EC22FC01E6
:1012E00027FF05C0EF5BFF4F008110E016C0E05CF8
:1012F000FF4F00813196808110E0081B11090DC05D
:101300000830110560F4F70184910E94DC06FFEFBC
:10131000EF1AFF0A21970F5F1F4F209789F7DD24EF
:10132000D3940830110509F0D12C0E94AA06B6CF3B
:10133000D110B7CF0CC08091E222882309F4B5CF39
:10134000853009F4B6CF0E9441078111B8CF0E94C1
:101350002707882381F380E0DF91CF911F910F91C0
:10136000FF90EF90DF9008950F931F93CF93DF933B
:10137000CDB7DEB7EA97CDBFDEBF03EE12E20E9423
:10138000CC06F80181938F01F2E20B3E1F07B9F7FB
:101390000E9478020E944107882309F409C1209124
:1013A000E3223091E422832F90E08A30910508F007
:1013B000FFC0FC01E250FF4F0C94260D203821F0B5
:1013C000223809F0F5C008C0109185258091862546
:1013D0008823A9F0126013C08091E7228F708530B6
:1013E00008F0E6C00E94EC06E091ED22F091EE22BA
:1013F000118112FB112710F980E00E94EC060E9477
:101400005B07812F0E94DC0680E0B0C0822F8D7FB9
:1014100009F0CEC0222319F0223061F0C9C08091BA
:10142000E522813009F0C4C0333009F080E08093B8
:10143000862527C08091E522811123C01091E722E3
:101440001F708FEF810F843008F0B2C0812F0E948F
:10145000EC068091E422833019F40E94850711C0C4
:10146000E091ED22F091EE2281818B7F818324E84F
:10147000129FD0011124AF5CBC4D1C9280818E7FE5
:10148000808380E00E94EC060E945B070E944C086B
:101490008FC021118DC01091E5221F770E945B073C
:1014A0000E944C080E941A078823E1F31093C3049A
:1014B000112311F083E001C082E08093E22278C022
:1014C0002058223008F074C08091E5229091E622E5
:1014D0008C3DE3E09E0771F583E08A838AE389838C
:1014E0004FB7F894DE01139620E038E052E05093B5
:1014F000CA01E32FF0E0E4911092CA0120FF03C07B
:10150000E295EF703F5FEF708E2F90E0EA3010F0C1
:10151000C79601C0C0968D939D932F5F2C3139F7EC
:101520004FBF0E945B076AE370E0CE0101960E9404
:10153000AC0813C06091E7227091E822AE014F5FC2
:101540005F4F0E947D028C01009791F10E945B0722
:10155000B80189819A810E942F090E94BD0628C086
:10156000203831F50E945B07809184250E94DC06BB
:101570000E94AA068BCF21111BC08091E5228230E8
:10158000B8F40E945B078091E522809384250E9435
:101590004C0880918425811104C08091C304882364
:1015A00011F084E001C081E08093E2220E94740285
:1015B0000E944107882321F00E945B070E94850753
:1015C000EA96CDBFDEBFDF91CF911F910F910895B5
:1015D000CF93DF93EC01FC0170968BE0DF011D924D
:1015E0008A95E9F782E08C83898783E08E8761E0C2
:1015F000CE0101960E94CE07882371F061E0CE01F2
:1016000006960E94CE07882339F061E0CE010B9642
:10161000DF91CF910C94CE0780E0DF91CF910895B8
:10162000CF93FC01C62F8091E222843019F54489C2
:10163000558966897789452B462B472BD9F08181BF
:101640000E94EC062091EB223091EC22F901EF5B35
:10165000FF4F908131978081981728F48C2F0E943A
:10166000DC0680E008C00E94AA060E946708882362
:10167000A9F301C082E0CF910895FB01682F848512
:1016800095850E94100B21E030E0811102C020E01E
:1016900030E088279927821B930B0895CF93DF931F
:1016A0002091E2222430B1F5FC01448955896689F4
:1016B0007789452B462B472B69F181810E94EC06E7
:1016C0002091EF228091EB229091EC22FC0127FFE8
:1016D00005C0EF5BFF4F208130E008C0E05CFF4FAA
:1016E00020813196408130E0241B3109232B81F089
:1016F000FC01EF5BFF4FD0813197C0810E94AA06A9
:10170000DC1730F00E946708811105C00E94AA060C
:1017100080E001C082E0DF91CF910895CF93DF9305
:10172000EC018091E2228430A1F44C895D896E89BC
:101730007F89452B462B472B61F089810E94EC065F
:101740000E941A07882329F0CE01DF91CF910C94D3
:101750004E0BDF91CF910895CF93DF932091E2223A
:10176000243019F0C0E0D0E03DC0FC014489558927
:1017700066897789452B462B472BA1F386810E94EA
:10178000EC060E942707882369F32091EF228091BD
:10179000EB229091EC22FC0127FF05C0EF5BFF4F8D
:1017A000C081D0E008C0E05CFF4FC081319620814D
:1017B000D0E0C21BD109209719F40E94BD0612C0C7
:1017C0002091EF22FC0127FF05C0EF5BFF4FC08196
:1017D000D0E008C0E05CFF4FC08131968081D0E04E
:1017E000C81BD109CE01DF91CF910895CF93DF932C
:1017F0002091E222243019F08FEF9FEF4AC0FC01C4
:101800004489558966897789452B462B472BA1F357
:1018100086810E94EC060E942707882369F3809145
:10182000EF222091EB223091EC22F90187FF05C0D5
:10183000EF5BFF4F808190E008C0E05CFF4F80814C
:101840003196208190E0821B9109892B29F00E941A
:10185000CC06C82FD0E002C0CFEFDFEF8091EF229F
:101860002091EB223091EC22F90187FF05C0EF5B5C
:10187000FF4F808190E008C0E05CFF4F808131968F
:10188000208190E0821B9109892B11F40E94BD06F2
:10189000CE01DF91CF910895FC01848595850E944A
:1018A000F60B97FF02C08EEF9FEF0895FB012EE02D
:1018B000DB011D922A95E9F723E023832DE33BE02A
:1018C000208731872CE43CE0228733878487958703
:1018D00008950895FF920F931F93CF93DF93EC0128
:1018E0000E944107882309F4ABC0888190E02091D1
:1018F000E7223091E8222817390709F0A1C080912A
:10190000E422813259F018F48032A1F199C0823278
:1019100009F46EC0833209F481C092C08091E32241
:10192000813A09F08DC00E945B070E941A07882344
:10193000E1F38C89FD880E891F890E94DC068F2DBA
:101940000E94DC06802F0E94DC06812F0E94DC06AC
:10195000888D0E94DC06898D0E94DC068A8D0E949B
:10196000DC060E94AA06DF91CF911F910F91FF9094
:101970000C944C088091E322813209F061C00E94EE
:101980005B070E942707811105C08091E222811127
:10199000F8CF56C00E94CC06082F0E94CC06182F04
:1019A0000E94CC06F82E0E94CC064F2D50E060E03D
:1019B00070E0BA0155274427782B402B512B4C8BD4
:1019C0005D8B6E8B7F8B0E94CC06888F0E94CC062D
:1019D000898F0E94CC068A8F0E94BD060E944C0807
:1019E000CE01DF91CF911F910F91FF900C94690C64
:1019F0008091E322813221F50E945B070E944C080E
:101A00008091E5229091E622888B998BCE01DF911F
:101A1000CF911F910F91FF900C947C028091E32253
:101A2000813271F40E945B070E944C086091E522AC
:101A3000CE01DF91CF911F910F91FF900C94690C13
:101A4000DF91CF911F910F91FF900895EE0FFF1F2F
:101A50000590F491E02D09942F923F925F926F923E
:101A60007F928F929F92AF92BF92CF92DF92EF922E
:101A7000FF920F931F93CF93DF938B01EA016115C0
:101A8000710521F0DB018C9311969C93209739F01E
:101A90009E01225031092332310508F0D8C07C0163
:101AA0006701BFEFCB1ADB0A5601F7016080862D74
:101AB00090E00E94540E892B11F07601F1CFFDE2E7
:101AC0006F120AC0570182E0A80EB11CD70111960F
:101AD0006C90772473940BC0BBE26B1207C0570164
:101AE000E2E0AE0EB11CD70111966C90712CCE01C4
:101AF0008F7E892B89F4B0E36B1237C0F5018081AA
:101B00008F7D8835D1F46180F2E0AF0EB11C872D56
:101B10008260782EC0E1D0E0CA30D10551F1C031E9
:101B2000D10521F0C830D10599F409C0CC24CA945C
:101B3000DC2CEC2CAFE0FA2E22C0209769F7C8E02D
:101B4000D0E0CC24CA94DC2CEC2CFFE1FF2E17C093
:101B50006FEF7FEFCB019E01442737FD4095542F57
:101B60000E94CE0E69017A010AC02097A9F6CAE048
:101B7000D0E0E9E9CE2EDC2CEC2CE9E1FE2EF501DB
:101B800060E020E030E0A9014E01AA2497FCA09477
:101B9000BA2C1F0170ED572E560CA9E0A51570F454
:101BA0008FEB860D8A3118F499EC592E06C08FE917
:101BB000860D8A3148F589EA582E560C852D90E01D
:101BC0008C179D070CF56F3FD9F0C216D306E406BB
:101BD000F50698F0C501B4010E94BE0E9B01AC0150
:101BE000852D90E0A0E0B0E0280F391F4A1F5B1F51
:101BF000281739074A075B0710F46FEF01C061E04F
:101C00003196D1016C90C5CF0115110551F06623B5
:101C100011F0319703C071FE04C03297D801ED93E3
:101C2000FC9370FE07C050954095309521953F4F2D
:101C30004F4F5F4F67FF10C082E290E0809387258F
:101C4000909388256FEF7FEF8FEF9FEF07C060E0E5
:101C500070E080E090E002C0B901CA01DF91CF914D
:101C60001F910F91FF90EF90DF90CF90BF90AF90BA
:101C70009F908F907F906F905F903F902F900895EE
:101C8000911106C080538A5010F0865C06C00895FA
:101C900099278827089585FDFBCF80629111F8CFA1
:101CA00081568A51E0F708959111F2CF803219F0F0
:101CB00089508550D0F708959111089581548A5123
:101CC00008F4805E855A0895FC018191861721F001
:101CD0008823D9F7992708953197CF010895FB01FB
:101CE00051915523A9F0BF01DC014D9145174111D8
:101CF000E1F759F4CD010190002049F04D914015D4
:101D00004111C9F3FB014111EFCF81E090E0019750
:101D10000895BB274A3031F4992322F4BDE290950F
:101D200081959F4F0C94950EBB27FB015527AA2741
:101D3000880F991FAA1FA41710F0A41B8395505158
:101D4000B9F7A05DAA3308F0A95DA193009779F7D0
:101D5000B111B1931192CB010C94AE0EDC01FC01D8
:101D6000672F71917723E1F7329704C07C916D93CF
:101D700070836291AE17BF07C8F30895DB018F939C
:101D80009F930E94F00EBF91AF91A29F800D911D75
:101D9000A39F900DB29F900D11240895A1E21A2ED9
:101DA000AA1BBB1BFD010DC0AA1FBB1FEE1FFF1FFF
:101DB000A217B307E407F50720F0A21BB30BE40B4F
:101DC000F50B661F771F881F991F1A9469F7609596
:101DD0007095809590959B01AC01BD01CF01089550
:101DE0000E94FB0EA59F900DB49F900DA49F800DA7
:101DF000911D11240895A29FB001B39FC001A39F1C
:101E0000700D811D1124911DB29F700D811D112433
:081E1000911D0895F894FFCF25
:101E18000083100000010410000001820800000186
:101E28000000000000000000000000912196210041
:101E380000000000EC03F8039A210000000000EC09
:101E480003E0039E21000000000004040000A2211A
:101E5800000300B72000000000A621000300962020
:101E680000000000AA210005005F2000000000B16A
:101E7800210000000000EC03E003BB21000000008B
:101E880000EC03E003C3210000000000EC03E003C2
:101E9800C9210000000000EC03E003CE210000008F
:101EA8000000EC03E003D52100000000000C05E071
:101EB80003DE2100000000006A05E003E8210000BD
:101EC800000000EC03E003D5210000000000E4045A
:101ED8009B05DE2100000000003905E003E8210031
:101EE80000000000EC03E003D007D0075B53435029
:101EF800495D204E6F20737562636F6D6D616E640E
:101F08007321005B534350495D204E6F74207175F7
:101F180065727961626C6521005B534350495D20AD
:101F28004E6F742063616C6C61626C6521005B5359
:101F38004350495D20436F6D6D616E6420646F6529
:101F480073206E6F7420657869737421005155454C
:101F58005259204E4F542059455420494D504C4514
:101F68004D454E5445442100434F4D4D414E44206C
:101F78004E4F542059455420494D504C454D454EDF
:101F8800544544210041475633204D6F746F7220E9
:101F98004472697665722076302E31001B5B324AB6
:101FA800004E554C4C0049444E004F504300434CA2
:101FB8005200434831004348320053595374656D09
:101FC800004652455175656E63790054494D456F19
:101FD80075740053544152740053544F5000535475
:101FE800415475730056454C6F63697479004449D0
:101FF80052656374696F6E0043555252656E740082
:10200800494E56414C49442056414C5545210046BD
:102018004F525700474F494E4720464F525741525B
:102028004421004241434B00474F494E472042411B
:10203800434B574152442100494E56414C49442094
:0C204800444952454354494F4E210000CA
:00000001FF
