:100000000C9453010C9470010C9470010C947001C9
:100010000C9470010C9470010C9470010C9470019C
:100020000C9470010C9470010C9470010C9470018C
:100030000C9470010C9470010C9470010C9470017C
:100040000C9470010C9470010C9470010C9470016C
:100050000C9470010C9470010C9470010C9470015C
:100060000C9470010C9470010C9470010C9470014C
:100070000C9470010C9470010C9470010C9470013C
:100080000C9470010C9470010C9470010C9470012C
:100090000C9470010C9470010C9470010C9470011C
:1000A0000C9470010C9470010C9470010C9470010C
:1000B0000C9470010C9470010C9470010C947001FC
:1000C0000C9470010C9470010C9470010C947001EC
:1000D0000C9470010C9470010C9470010C947001DC
:1000E0000C9470010C9470010C94C9010C94700173
:1000F0000C9470010C9470010C9470010C947001BC
:100100000C9470010C9470010C9470010C947001AB
:100110000C9470010C9470010C9470010C9470019B
:100120000C9470010C9470010C9470010C9470018B
:100130000C9470010C9470010C9470010C9470017B
:100140000C9470010C9470010C9470010C9470016B
:100150000C9470010C9470010C9470010C9470015B
:100160000C9470010C9470010C9470010C9470014B
:100170000C9470010C9470010C9470010C9470013B
:100180000C9470010C9470010C9470010C9470012B
:100190000C9470010C9470010C9470010C9470011B
:1001A0000C9470010C9470010C9470010C9470010B
:1001B0000C9470010C9470010C9470010C947001FB
:1001C0000C9470010C9470010C9470010C947001EB
:1001D0000C9470010C9470010C9470010C947001DB
:1001E0000C9470010C9470010C9470010C947001CB
:1001F0000C9470010C94EF050C947001A709CF09C1
:10020000A10ACF09A10A120A290AA10A790A840AB5
:100210002403410047005600330020004D006F00CA
:1002200074006F00720020004400720069007600C4
:100230006500720000001A034700500041002000D2
:1002400052006F0062006F00740069006300730069
:1002500000000403090409023E00020100C0320943
:100260000400000102020100052400100104240220
:10027000060524060001070582030800FF090401A2
:1002800000020A00000007050402100005070583AC
:10029000021000051201100102000008EB034420C7
:1002A00002000102DC0111241FBECFEFCDBFDFE24F
:1002B000DEBF12E2A0E0B0E2EAEAFDE102C0059092
:1002C0000D92AA30B107D9F725E2AAE0B2E201C047
:1002D0001D92A735B207E1F70E9459020C94D30E84
:1002E0000C9400009091A10A95FFFCCF8093A00A86
:1002F000682F80E090E20C94D90ACF93DF93EC0151
:100300008991882319F00E947201FACFDF91CF9171
:1003100008950E947D018AE00E9472018DE00C9494
:100320007201E0EAFAE080ED878383E8868383E068
:10033000858380E1838388E18483E0E8F6E098E0C8
:100340009183828B089590914B22E92FF0E0E55F35
:10035000FD4D8083883031F4992391F09150909332
:100360004B2208958D3051F410828BE092E20E946E
:100370001F0310920A2210924B2208959F3340F4DB
:100380009F5F90934B2280910A228F5F80930A2275
:1003900008951F920F920FB60F9211242F933F933F
:1003A0004F935F936F937F938F939F93AF93BF937D
:1003B000EF93FF938091A00A0E94A301FF91EF9118
:1003C000BF91AF919F918F917F916F915F914F916D
:1003D0003F912F910F900FBE0F901F90189580E1C5
:1003E00080935500809150008061809350008091EF
:1003F000510084FFFCCF2FB7F89434E088ED90E0F3
:10040000A0E4B0E01BBEFD0184BF30832FBF8FE3AB
:100410009FE10197F1F700C00000809140008091BA
:1004200050008260809350008091510081FFFCCF8A
:10043000809156008460809356008BE18093650024
:1004400087EB8093660082E08093CA01EDE1F0E0E3
:10045000E491E0936200ECE1F0E0E491E09363006A
:100460001092CA0181E08093600087E08093A2002F
:1004700078940E9491018CED90E20E947D010E948F
:10048000140480E090E00E941A0460ED77E080E0C0
:100490000E943A0461E080E00E94560460ED77E03B
:1004A00081E00E943A0461E081E00E9456040C94CD
:1004B000B9050E94EF016CE472E280E090E20E94D4
:1004C0001F0C789480E090E20E94750B892B39F024
:1004D00080E090E20E94BF0B0E94A301F3CF80E076
:1004E00090E20E94570B0E945E06ECCF089508959B
:1004F00080E090E20C94B10A80E090E20C94330C1E
:100500000895292F33272230310559F02330310542
:1005100069F021303105F9F482E190E024E932E01C
:100520001EC08EE390E026E532E019C099278130A5
:10053000910541F08230910541F0892B61F4E2E5AB
:10054000F2E005C0E6E3F2E002C0E0E1F2E084910F
:1005500090E09F0104C080E090E020E030E0FA01EC
:100560002083318308950F931F93CF93DF93EC0182
:100570008E012196F8018081992787FD90950E9430
:100580001D0E892BA9F7C801DF91CF911F910F9103
:100590000895BF92CF92DF92EF92FF920F931F9335
:1005A000CF93DF937B01EC018E01F701B1907F01C6
:1005B000BB2021F12196F8018081992787FD909534
:1005C0000E94250EC82EDD24C7FCD094C6010E94CF
:1005D000090E2B2D332727FD3095892B41F4C901B6
:1005E0000E94170E892BF1F480E090E01EC0C90133
:1005F0000E94250EC816D906B9F2F6CF1881812FB0
:10060000992787FD90950E941D0E892B69F486EC31
:10061000810F823048F01F3339F0112329F01D304B
:1006200019F702C0C80101C0CE01DF91CF911F911F
:100630000F91FF90EF90DF90CF90BF90089543E02F
:1006400050E06EE370E20C9425034F925F926F923C
:100650007F928F929F92AF92BF92CF92DF92EF9252
:10066000FF920F931F93CF93DF935B01542E452E80
:100670000E94B3027C01DC018C91882309F48FC0B5
:100680008A33A1F4C7010196DF91CF911F910F9199
:10069000FF90EF90DF90CF90BF90AF909F908F90A2
:1006A0007F906F905F904F900C941F038A3249F4B3
:1006B000BFEFEB1AFB0A8DE190E223E0C22ED12CB2
:1006C00003C0C501C52CD42C4C01612C712C6C14B9
:1006D0007D040CF050C08401F40160817181C70178
:1006E0000E94C902EC01FBE08F0E911C009721F4DF
:1006F0008FEF681A780AEBCF88818A3399F4CE019C
:100700000196D8011596AD90BC901697A114B1042E
:1007100031F013965C90139714964C90A9CF8BEE02
:1007200090E22BC08F3381F42196CE010E94B30258
:10073000D8011996ED91FC911A97309779F482E0DF
:1007400091E20E9489010DC0CE010E94B302D8013E
:100750001796ED91FC911897309731F0CE010995DD
:10076000EC01209729F41BC088E191E20E948901E5
:10077000CE0101967DCF8DE291E2DF91CF911F9165
:100780000F91FF90EF90DF90CF90BF90AF909F9030
:100790008F907F906F905F904F900C948901DF91C4
:1007A000CF911F910F91FF90EF90DF90CF90BF906E
:1007B000AF909F908F907F906F905F904F90089533
:1007C0006BE370E00C942D0ECF93DF93EC018CE47F
:1007D00091E20E948901CE01DF91CF910C94E00358
:1007E000CF93DF93EC0187E691E20E948901CE016D
:1007F000DF91CF910C94E003CF93DF93EC0184E879
:1008000091E20E948901CE01DF91CF910C94E00327
:10081000CF93DF93EC018BE991E20E948901CE0135
:10082000DF91CF910C94E003E0E4F6E08FEF80835A
:100830001482089510925A2210925B22E0E0F8E0B0
:1008400080ED97E086A397A3818183608183808177
:1008500081608083E0E8F8E080818F608083089584
:10086000E0E8F8E08081807F8083E0E0F8E080814C
:100870008083089581110DC06093DA207093DB208E
:10088000609328087093290860932A0870932B08B6
:1008900008956093D8207093D92060932C087093AA
:1008A0002D0860932E0870932F080895CF93DF933F
:1008B00000D0CDB7DEB76A8389830E943004898176
:1008C0006A8181112AC080918C08807F80938C0876
:1008D00080914406807F8093440680918C08662333
:1008E00039F0836080938C0880914406846006C050
:1008F0008C6080938C0880914406816080934406CC
:100900008091DA209091DB20809328089093290829
:1009100080932A0890932B0829C080918C088F70AF
:1009200080938C08809144068F7080934406809158
:100930008C08662339F0806380938C08809144068C
:10094000806406C0806C80938C088091440680612E
:10095000809344068091D8209091D92080932C08D0
:1009600090932D0880932E0890932F0880E090E0BC
:100970000F900F90DF91CF910C941A04FF920F9378
:100980001F93CF93DF93EC018881FC2E0D2F1991DB
:10099000112389F0992787FD90950E941D0E892BC0
:1009A00069F0812F992787FD90950E941D0E892B54
:1009B00029F41B3329F480E090E004C0812FE5CFB7
:1009C0008F2D902FDF91CF911F910F91FF90089560
:1009D000CF93DF93EC014AE050E060E070E00E94CA
:1009E000F50C613D27E0720740F420ED37E0261B4F
:1009F000370BB90180E00E943A04CE01DF91CF911C
:100A00000C94E003CF93DF93EC014AE050E060E008
:100A100070E00E94F50C613D27E0720740F420ED84
:100A200037E0261B370BB90181E00E943A04CE0162
:100A3000DF91CF910C94E0030F931F93CF93DF933B
:100A40008C010E94BE04EC016FEF71E20E94380E2F
:100A5000C817D90711F461E009C064E072E2CE0161
:100A60000E94380EC817D90721F460E080E00E9488
:100A70005604C801DF91CF911F910F910C94E003B0
:100A80000F931F93CF93DF938C010E94BE04EC0160
:100A90006FEF71E20E94380EC817D90711F461E0B8
:100AA00009C064E072E2CE010E94380EC817D9076F
:100AB00021F460E081E00E945604C801DF91CF91EB
:100AC0001F910F910C94E0030F931F93CF93DF932B
:100AD000CDB7DEB76097CDBFDEBF8C01E0E8F8E0B0
:100AE000848540E1BE016F5F7F4F90E00E94520E0F
:100AF000CE0101960E948901C8010E94E003609620
:100B0000CDBFDEBFDF91CF911F910F910895CF939D
:100B1000DF93E0E4F0E014828481836084830E94A8
:100B2000E2050E94E905C0ECD4E088818F778883D4
:100B30008881806888831092B0221092522510928A
:100B400054251092532588818064888348E068E4A6
:100B500080E80E94660748E068E480E00E9466073B
:100B6000888580648887898181608983DF91CF91BE
:100B700008952FB7F89482E0E0ECF1E08287EAE193
:100B8000F0E0E491A0ECB4E0DA96EC93DA97EBE1D4
:100B9000F0E0E491DB96EC93DB97E0ECF1E0128679
:100BA0008DE592E28E7F16968D939C93179784E144
:100BB0008C9383E018968C932FBF81E08093AF22B3
:100BC0000C948705E0ECF4E08085837080871186C3
:100BD0000895E0ECF4E08FEF8287848708951F92F8
:100BE0000F920FB60F9211242F933F934F935F9361
:100BF0006F937F938F939F93AF93BF93EF93FF93E5
:100C00008091CA0487FF09C08091C80487FF05C08E
:100C100080E88093CA040E945D068091CA0486FF22
:100C200007C080E48093CA041092B0220E94770229
:100C30008091CA0485FF14C080E28093CA04809129
:100C40005225882311F084E007C08091C3048823D3
:100C500011F083E001C081E08093B0220E9476020F
:100C60008091CA0484FF18C080E18093CA0482E0A6
:100C70008093B022109252251092C3040E94FA076A
:100C800048E068E480E80E94660748E068E480E0A5
:100C90000E9466070E945D06FF91EF91BF91AF91A0
:100CA0009F918F917F916F915F914F913F912F9184
:100CB0000F900FBE0F901F9018950895CF938091BD
:100CC000B022882371F0C091BD2280E00E94B50659
:100CD0000E940A0781110E947D098C2FCF910C94EC
:100CE000B506CF910895E091BB22F091BC22A0916E
:100CF000B922B091BA22AF5BBF4F8C9190E0828352
:100D0000938380818D7980831C920895E091BB222A
:100D1000F091BC2280818D798083E091B922F0919D
:100D2000BA22EF5BFF4F108208958091B922909113
:100D3000BA22FC01EF5BFF4F208131E0320F30839C
:100D4000FC01E20FF11D808108952091B9223091BC
:100D5000BA22F901EF5BFF4F908141E0490F4083D8
:100D6000F901E90FF11D808308958093BD22482F7A
:100D70004F7094E8499F9001112422543D4D609199
:100D8000C6047091C70490E1499FA001112487FF18
:100D90000FC02E5B3F4F2093B9223093BA22CA0175
:100DA0000896860F971F8093BB229093BC220895CC
:100DB0002093B9223093BA22460F571F4093BB228B
:100DC0005093BC2208958091BD2280680E94B50690
:100DD000E091BB22F091BC228081869581700895BC
:100DE0008091BD228F770E94B506E091BB22F091E1
:100DF000BC22808185FF0CC02091B9223091BA229B
:100E000082819381F901E05CFF4F808381E0089546
:100E100080E008958091BD228F770E94B506E09111
:100E2000BB22F091BC22808184FF0CC02091B922AA
:100E30003091BA2282819381F901E05CFF4F808377
:100E400081E0089580E008958091BD228F770E940F
:100E5000B506E091BB22F091BC2280818D78808321
:100E6000808181608083E091B922F091BA22EF5BAA
:100E7000FF4F10828091BD2280680E94B506E091EC
:100E8000BB22F091BC22808181608083E091B922F5
:100E9000F091BA22EF5BFF4F10820895E091BB22E0
:100EA000F091BC228181846081838181807C803447
:100EB00061F48091BD2280580E94B506E091BB226A
:100EC000F091BC2281818460818308951F93CF9328
:100ED000DF9300D0CDB7DEB7182F4A8369830E9415
:100EE000B506E091BB22F091BC221182812F881FB0
:100EF0008827881F880F808369816183128213820B
:100F00002091B9223091BA2224833583110F110B1D
:100F10004A811423F901E05CFF4F1083319610825F
:100F200081E00F900F90DF91CF911F910895CF92A4
:100F3000DF92EF92FF920F931F93CF93DF9300D036
:100F4000CDB7DEB7E62E6C01F12CFE1409F446C0D5
:100F5000F60190819923E9F1018112818381248135
:100F6000223010F058E101C058E028E030E040E0C5
:100F70002017310720F44F5F220F331FF9CF452B85
:100F8000292F2F7030E02530310514F080E027C084
:100F9000242F2F7E01341105C8F7882321F08130DA
:100FA00021F4206C0FC0206403C0206881110AC0A6
:100FB000402F622F80E8890F2A8399830E94660759
:100FC00099812A81402F622F892F0E9466078823EA
:100FD000E9F2F394F5E0CF0ED11CB7CF81E00F908A
:100FE0000F90DF91CF911F910F91FF90EF90DF90C5
:100FF000CF90089580E090E0E091C604F091C7049E
:101000009C0174E0220F331F7A95E1F7E20FF31F82
:101010001186E091C604F091C704E20FF31F11821C
:1010200001968530910541F708958091B12287FDA1
:1010300005C00E94E306882361F010C00E94F006FC
:10104000811105C08091B0228111F8CF08950C94D0
:1010500086068091B0228111ECCF08950C9473061E
:101060001F93CF93DF93E091C604F091C704E05B38
:10107000FF4FC081D18114E68091BD2280788038F5
:1010800059F40E94E306811105C08091B0228111BC
:1010900006C022C080E025C00E94F006F4CF853053
:1010A000E9F0E091BB22F091BC22818182FD18C061
:1010B000E091C604F091C704E05BFF4F808191810D
:1010C0008C179D07C9F22FEF210F112319F0EC01A6
:1010D000122FD2CF84E005C082E003C083E001C0BC
:1010E00081E0DF91CF911F910895DF92EF92FF92FF
:1010F0000F931F93CF93DF93182F092FEB0180914C
:10110000BD2280680E94B5062091B7223091B82296
:101110002C173D0728F0209721F40E94730601C088
:10112000E901E12EF02ED12C209709F445C08091E1
:10113000B022811102C082E053C0853011F483E0F7
:101140004FC00E940A07882311F081E049C00E9425
:10115000F006811140C00E94E306882329F3209104
:10116000BD228091B9229091BA22FC0127FF05C0CF
:10117000EF5BFF4F008110E014C0E05CFF4F008187
:101180003196808110E0081B11090BC00830110551
:1011900050F4F70181917F010E94A50621970F5F0E
:1011A0001F4F209799F7DD24D3940830110509F0DB
:1011B000D12C0E947306B8CFD110B9CF0CC080914A
:1011C000B022882309F4B7CF853009F4B8CF0E9444
:1011D0000A078111BACF0E94F006882381F380E0CC
:1011E000DF91CF911F910F91FF90EF90DF900895C5
:1011F000DF92EF92FF920F931F93CF93DF93182FFD
:10120000092FEB018091BD2280680E94B5062091D4
:10121000B7223091B8222C173D0728F0209721F4EF
:101220000E94730601C0E901E12EF02ED12C209717
:1012300009F447C08091B022811102C082E055C0FC
:10124000853011F483E051C00E940A07882311F011
:1012500081E04BC00E94F006811142C00E94E3066B
:10126000882329F32091BD228091B9229091BA223E
:10127000FC0127FF05C0EF5BFF4F008110E016C0A7
:10128000E05CFF4F00813196808110E0081B11095E
:101290000DC00830110560F4F70184910E94A50685
:1012A000FFEFEF1AFF0A21970F5F1F4F209789F773
:1012B000DD24D3940830110509F0D12C0E94730667
:1012C000B6CFD110B7CF0CC08091B022882309F4DB
:1012D000B5CF853009F4B6CF0E940A078111B8CF87
:1012E0000E94F006882381F380E0DF91CF911F9167
:1012F0000F91FF90EF90DF9008950F931F93CF937E
:10130000DF93CDB7DEB7EA97CDBFDEBF01EB12E2C8
:101310000E949506F80181938F01F2E2093B1F07B5
:10132000B9F70E947C020E940A07882309F409C1C8
:101330002091B1223091B222832F90E08A30910522
:1013400008F0FFC0FC01E250FF4F0C94EF0C203876
:1013500021F0223809F0F5C008C010915325809182
:1013600054258823A9F0126013C08091B5228F7094
:10137000853008F0E6C00E94B506E091BB22F091EE
:10138000BC22118112FB112710F980E00E94B506E2
:101390000E942407812F0E94A50680E0B0C0822F02
:1013A0008D7F09F0CEC0222319F0223061F0C9C030
:1013B0008091B322813009F0C4C0333009F080E05D
:1013C0008093542527C08091B322811123C01091AE
:1013D000B5221F708FEF810F843008F0B2C0812FCB
:1013E0000E94B5068091B222833019F40E944E0704
:1013F00011C0E091BB22F091BC2281818B7F81835F
:1014000024E8129FD0011124A150BD4D1C9280816F
:101410008E7F808380E00E94B5060E9424070E9490
:1014200015088FC021118DC01091B3221F770E9423
:1014300024070E9415080E94E3068823E1F3109315
:10144000C304112311F083E001C082E08093B02235
:1014500078C02058223008F074C08091B322909157
:10146000B4228C3DE3E09E0771F583E08A838AE332
:1014700089834FB7F894DE01139620E038E052E0FC
:101480005093CA01E32FF0E0E4911092CA0120FFCB
:1014900003C0E295EF703F5FEF708E2F90E0EA306F
:1014A00010F0C79601C0C0968D939D932F5F2C318D
:1014B00039F74FBF0E9424076AE370E0CE0101961E
:1014C0000E94750813C06091B5227091B622AE01DA
:1014D0004F5F5F4F0E9481028C01009791F10E9443
:1014E0002407B80189819A810E94F8080E94860623
:1014F00028C0203831F50E942407809152250E948F
:10150000A5060E9473068BCF21111BC08091B322C8
:101510008230B8F40E9424078091B3228093522530
:101520000E94150880915225811104C08091C30446
:10153000882311F084E001C081E08093B0220E94F2
:1015400078020E940A07882321F00E9424070E9443
:101550004E07EA96CDBFDEBFDF91CF911F910F916D
:101560000895CF93DF93EC01FC0170968BE0DF01CF
:101570001D928A95E9F782E08C83898783E08E87C4
:1015800061E0CE0101960E949707882371F061E027
:10159000CE0106960E949707882339F061E0CE01BC
:1015A0000B96DF91CF910C94970780E0DF91CF915C
:1015B0000895CF93FC01C62F8091B022843019F595
:1015C0004489558966897789452B462B472BD9F065
:1015D00081810E94B5062091B9223091BA22F90189
:1015E000EF5BFF4F908131978081981728F48C2F03
:1015F0000E94A50680E008C00E9473060E94300881
:101600008823A9F301C082E0CF910895FB01682FE0
:10161000848595850E94D90A21E030E0811102C0BD
:1016200020E030E088279927821B930B0895CF9301
:10163000DF932091B0222430B1F5FC014489558913
:1016400066897789452B462B472B69F181810E945A
:10165000B5062091BD228091B9229091BA22FC0159
:1016600027FF05C0EF5BFF4F208130E008C0E05C42
:10167000FF4F20813196408130E0241B3109232B1C
:1016800081F0FC01EF5BFF4FD0813197C0810E9458
:101690007306DC1730F00E943008811105C00E94EB
:1016A000730680E001C082E0DF91CF910895CF936F
:1016B000DF93EC018091B0228430A1F44C895D89E4
:1016C0006E897F89452B462B472B61F089810E94CB
:1016D000B5060E94E306882329F0CE01DF91CF9161
:1016E0000C94170BDF91CF910895CF93DF93209146
:1016F000B022243019F0C0E0D0E03DC0FC014489A4
:10170000558966897789452B462B472BA1F386811E
:101710000E94B5060E94F006882369F32091BD223D
:101720008091B9229091BA22FC0127FF05C0EF5B9E
:10173000FF4FC081D0E008C0E05CFF4FC081319610
:101740002081D0E0C21BD109209719F40E9486069F
:1017500012C02091BD22FC0127FF05C0EF5BFF4FA7
:10176000C081D0E008C0E05CFF4FC081319680812D
:10177000D0E0C81BD109CE01DF91CF910895CF935E
:10178000DF932091B022243019F08FEF9FEF4AC0F1
:10179000FC014489558966897789452B462B472B5F
:1017A000A1F386810E94B5060E94F006882369F3A2
:1017B0008091BD222091B9223091BA22F90187FF90
:1017C00005C0EF5BFF4F808190E008C0E05CFF4FF9
:1017D00080813196208190E0821B9109892B29F02C
:1017E0000E949506C82FD0E002C0CFEFDFEF8091B6
:1017F000BD222091B9223091BA22F90187FF05C09C
:10180000EF5BFF4F808190E008C0E05CFF4F80817C
:101810003196208190E0821B9109892B11F40E945E
:101820008606CE01DF91CF910895FC0184859585D0
:101830000E94BF0B97FF02C08EEF9FEF0895FB0140
:101840002EE0DB011D922A95E9F723E0238326E0B1
:101850003BE02087318725E13CE02287338784877E
:10186000958708950895FF920F931F93CF93DF9369
:10187000EC010E940A07882309F4ABC0888190E03C
:101880002091B5223091B6222817390709F0A1C05E
:101890008091B222813259F018F48032A1F199C0BE
:1018A000823209F46EC0833209F481C092C0809103
:1018B000B122813A09F08DC00E9424070E94E306FC
:1018C0008823E1F38C89FD880E891F890E94A50673
:1018D0008F2D0E94A506802F0E94A506812F0E94B1
:1018E000A506888D0E94A506898D0E94A5068A8D71
:1018F0000E94A5060E947306DF91CF911F910F9160
:10190000FF900C9415088091B122813209F061C0DA
:101910000E9424070E94F006811105C08091B02228
:101920008111F8CF56C00E949506082F0E94950697
:10193000182F0E949506F82E0E9495064F2D50E014
:1019400060E070E0BA0155274427782B402B512BDB
:101950004C8B5D8B6E8B7F8B0E949506888F0E94CF
:101960009506898F0E9495068A8F0E9486060E949E
:101970001508CE01DF91CF911F910F91FF900C942C
:10198000320C8091B122813221F50E9424070E94FD
:1019900015088091B3229091B422888B998BCE0147
:1019A000DF91CF911F910F91FF900C948002809155
:1019B000B122813271F40E9424070E9415086091BF
:1019C000B322CE01DF91CF911F910F91FF900C9424
:1019D000320CDF91CF911F910F91FF900895EE0F80
:1019E000FF1F0590F491E02D09942F923F925F9292
:1019F0006F927F928F929F92AF92BF92CF92DF921F
:101A0000EF92FF920F931F93CF93DF938B01EA0125
:101A10006115710521F0DB018C9311969C93209741
:101A200039F09E01225031092332310508F0D8C027
:101A30007C016701BFEFCB1ADB0A5601F70160801A
:101A4000862D90E00E941D0E892B11F07601F1CFBA
:101A5000FDE26F120AC0570182E0A80EB11CD70147
:101A600011966C90772473940BC0BBE26B1207C085
:101A70005701E2E0AE0EB11CD70111966C90712CAB
:101A8000CE018F7E892B89F4B0E36B1237C0F5014C
:101A900080818F7D8835D1F46180F2E0AF0EB11C7A
:101AA000872D8260782EC0E1D0E0CA30D10551F197
:101AB000C031D10521F0C830D10599F409C0CC243A
:101AC000CA94DC2CEC2CAFE0FA2E22C0209769F7E8
:101AD000C8E0D0E0CC24CA94DC2CEC2CFFE1FF2E33
:101AE00017C06FEF7FEFCB019E01442737FD409574
:101AF000542F0E94970E69017A010AC02097A9F617
:101B0000CAE0D0E0E9E9CE2EDC2CEC2CE9E1FE2E97
:101B1000F50160E020E030E0A9014E01AA2497FC25
:101B2000A094BA2C1F0170ED572E560CA9E0A515F4
:101B300070F48FEB860D8A3118F499EC592E06C09B
:101B40008FE9860D8A3148F589EA582E560C852D85
:101B500090E08C179D070CF56F3FD9F0C216D306A5
:101B6000E406F50698F0C501B4010E94870E9B01BA
:101B7000AC01852D90E0A0E0B0E0280F391F4A1F8E
:101B80005B1F281739074A075B0710F46FEF01C086
:101B900061E03196D1016C90C5CF0115110551F06E
:101BA000662311F0319703C071FE04C03297D8014B
:101BB000ED93FC9370FE07C05095409530952195AC
:101BC0003F4F4F4F5F4F67FF10C082E290E080931E
:101BD0005525909356256FEF7FEF8FEF9FEF07C04E
:101BE00060E070E080E090E002C0B901CA01DF91DE
:101BF000CF911F910F91FF90EF90DF90CF90BF900A
:101C0000AF909F908F907F906F905F903F902F90BC
:101C10000895911106C080538A5010F0865C06C06A
:101C2000089599278827089585FDFBCF806291113B
:101C3000F8CF81568A51E0F708959111F2CF8032A2
:101C400019F089508550D0F7089591110895815465
:101C50008A5108F4805E855A0895FC0181918617A7
:101C600021F08823D9F7992708953197CF01089556
:101C7000FB0151915523A9F0BF01DC014D9145179E
:101C80004111E1F759F4CD010190002049F04D9147
:101C900040154111C9F3FB014111EFCF81E090E004
:101CA00001970895BB274A3031F4992322F4BDE20D
:101CB000909581959F4F0C945E0EBB27FB01552795
:101CC000AA27880F991FAA1FA41710F0A41B839599
:101CD0005051B9F7A05DAA3308F0A95DA193009710
:101CE00079F7B111B1931192CB010C94770EDC010D
:101CF000FC01672F71917723E1F7329704C07C9143
:101D00006D9370836291AE17BF07C8F30895DB012E
:101D10008F939F930E94B90EBF91AF91A29F800DA8
:101D2000911DA39F900DB29F900D11240895A1E2E3
:101D30001A2EAA1BBB1BFD010DC0AA1FBB1FEE1F45
:101D4000FF1FA217B307E407F50720F0A21BB30B90
:101D5000E40BF50B661F771F881F991F1A9469F70C
:101D600060957095809590959B01AC01BD01CF0168
:101D700008950E94C40EA59F900DB49F900DA49F3E
:101D8000800D911D11240895A29FB001B39FC00141
:101D9000A39F700D811D1124911DB29F700D811D97
:0A1DA0001124911D0895F894FFCF5F
:101DAA0000831000000104100000018208000001F5
:101DBA000000000000000000000000A021A5210092
:101DCA0000000000F003FC03A9210000000000F05D
:101DDA0003E403AD21000000000008040000B12163
:101DEA00000300B72000000000B521000300962080
:101DFA0000000000B9210005005F2000000000C0BB
:101E0A00210000000000F003E403CA2100000000E2
:101E1A0000F003E403D2210000000000F003E40311
:101E2A00D8210000000000F003E403DD21000000D7
:101E3A000000F003E403E42100000000000205E4CE
:101E4A0003ED2100000000004005E403F721000033
:101E5A00000000F003E403E4210000000000E804AD
:101E6A006405ED2100000000001C05E403F72100D1
:101E7A0000000000F003E403D007D00748656C6C4B
:101E8A006F20776F726C64210A0D005B53435049CF
:101E9A005D204E6F20737562636F6D6D616E647342
:101EAA0021005B534350495D204E6F742071756564
:101EBA00727961626C6521005B534350495D204E23
:101ECA006F742063616C6C61626C6521005B5343C3
:101EDA0050495D20436F6D6D616E6420646F657358
:101EEA00206E6F74206578697374210051554552CC
:101EFA0059204E4F542059455420494D504C454D78
:101F0A00454E5445442100434F4D4D414E44204EC9
:101F1A004F542059455420494D504C454D454E5437
:101F2A004544210041475633204D6F746F72204457
:101F3A0072697665722076302E31001B5B324A0058
:101F4A004E554C4C0049444E004F504300434C52AE
:101F5A0000434831004348320053595374656D00B9
:101F6A004652455175656E63790054494D456F7502
:101F7A00740053544152740053544F500053544107
:101F8A005475730056454C6F63697479004449521D
:101F9A00656374696F6E0043555252656E740046EC
:0A1FAA004F5257004241434B000024
:00000001FF
