:100000000C9453010C9470010C9470010C947001C9
:100010000C9470010C9470010C9470010C9470019C
:100020000C9470010C9470010C9470010C9470018C
:100030000C9470010C9470010C9470010C9470017C
:100040000C9470010C9470010C9470010C9470016C
:100050000C9470010C9470010C9470010C9470015C
:100060000C9470010C9470010C9470010C9470014C
:100070000C9470010C9470010C9470010C9470013C
:100080000C9470010C9470010C9470010C9470012C
:100090000C9470010C9470010C9470010C9470011C
:1000A0000C9470010C9470010C9470010C9470010C
:1000B0000C9470010C9470010C9470010C947001FC
:1000C0000C9470010C9470010C9470010C947001EC
:1000D0000C9470010C9470010C9470010C947001DC
:1000E0000C9470010C9470010C9470010C947001CC
:1000F0000C9470010C9470010C9470010C947001BC
:100100000C9470010C9470010C9470010C947001AB
:100110000C9470010C9470010C9470010C9470019B
:100120000C9470010C9470010C9470010C9470018B
:100130000C9470010C9470010C9470010C9470017B
:100140000C9470010C9470010C9470010C9470016B
:100150000C9470010C9470010C9470010C9470015B
:100160000C9470010C9470010C9470010C9470014B
:100170000C9470010C9470010C9470010C9470013B
:100180000C9470010C9470010C9470010C9470012B
:100190000C9470010C9470010C9470010C9470011B
:1001A0000C9470010C9470010C9470010C9470010B
:1001B0000C9470010C9470010C9470010C947001FB
:1001C0000C9470010C9470010C9470010C947001EB
:1001D0000C9470010C9470010C9470010C947001DB
:1001E0000C9470010C9470010C9470010C947001CB
:1001F0000C9470010C947D020C94700135065D0620
:100200002F075D062F07A006B7062F07070712075F
:100210002403410047005600330020004D006F00CA
:1002200074006F00720020004400720069007600C4
:100230006500720000001A034700500041002000D2
:1002400052006F0062006F00740069006300730069
:1002500000000403090409023E00020100C0320943
:100260000400000102020100052400100104240220
:10027000060524060001070582030800FF090401A2
:1002800000020A00000007050402100005070583AC
:10029000021000051201100102000008EB034420C7
:1002A00002000102DC0111241FBECFEFCDBFDFE24F
:1002B000DEBF10E2A0E0B0E2E6E7F2E102C00590A6
:1002C0000D92AC31B107D9F723E2ACE1B0E201C045
:1002D0001D92A332B207E1F70E94BD010C943909C7
:1002E0000C94000080E18093550080915000806163
:1002F000809350008091510084FFFCCF2FB7F89479
:1003000034E088ED90E0A0E4B0E01BBEFD0184BFC6
:1003100030832FBF8FE39FE10197F1F700C000000A
:1003200080914000809150008260809350008091C5
:10033000510081FFFCCF809156008460809356006D
:100340008BE18093650087EB8093660082E0809369
:10035000CA01EDE1F0E0E491E0936200ECE1F0E04D
:10036000E491E09363001092CA0181E08093600001
:1003700087E08093A2000C9447020E9472016CE116
:1003800070E280E090E20E946308789480E090E25E
:100390000E94030897FD05C0682F80E090E20E944C
:1003A000670780E090E20E94E5070E94EC02EECF32
:1003B0000895089580E090E20C943F0780E090E279
:1003C0000C9477080895292F33272230310559F0EE
:1003D0002330310569F021303105F9F482E190E0F4
:1003E00024E932E01EC08EE390E026E532E019C039
:1003F00099278130910541F08230910541F0892B98
:1004000061F4E2E5F2E005C0E6E3F2E002C0E0E11B
:10041000F2E0849190E09F0104C080E090E020E051
:1004200030E0FA01208331830895CF93DF93E0E435
:10043000F0E014828481836084830E9470020E94B1
:100440007702C0ECD4E088818F77888388818068C8
:10045000888310927E2010922023109222231092E3
:10046000212388818064888348E068E480E80E94D2
:10047000F40348E068E480E00E94F4038885806427
:100480008887898181608983DF91CF9108952FB713
:10049000F89482E0E0ECF1E08287EAE1F0E0E491B8
:1004A000A0ECB4E0DA96EC93DA97EBE1F0E0E491BB
:1004B000DB96EC93DB97E0ECF1E012868BE290E2C6
:1004C0008E7F16968D939C93179784E18C9383E08F
:1004D00018968C932FBF81E080937D200C94150299
:1004E000E0ECF4E080858370808711860895E0EC6D
:1004F000F4E08FEF8287848708951F920F920FB6E2
:100500000F9211242F933F934F935F936F937F9399
:100510008F939F93AF93BF93EF93FF938091CA0400
:1005200087FF09C08091C80487FF05C080E88093D9
:10053000CA040E94EB028091CA0486FF07C080E4CF
:100540008093CA0410927E200E94D9018091CA042F
:1005500085FF14C080E28093CA0480912023882301
:1005600011F084E007C08091C304882311F083E078
:1005700001C081E080937E200E94D8018091CA044E
:1005800084FF18C080E18093CA0482E080937E20BB
:10059000109220231092C3040E94880448E068E46B
:1005A00080E80E94F40348E068E480E00E94F403DD
:1005B0000E94EB02FF91EF91BF91AF919F918F91BC
:1005C0007F916F915F914F913F912F910F900FBE4F
:1005D0000F901F9018950895CF9380917E208823C7
:1005E00071F0C0918B2080E00E9443030E94980329
:1005F00081110E940B068C2FCF910C944303CF9155
:100600000895E0918920F0918A20A0918720B091EF
:100610008820AF5BBF4F8C9190E082839383808171
:100620008D7980831C920895E0918920F0918A2031
:1006300080818D798083E0918720F0918820EF5B25
:10064000FF4F108208958091872090918820FC01AF
:10065000EF5BFF4F208131E0320F3083FC01E20F6E
:10066000F11D808108952091872030918820F90123
:10067000EF5BFF4F908141E0490F4083F901E90FA3
:10068000F11D8083089580938B20482F4F7094E84C
:10069000499F9001112424573F4D6091C6047091E9
:1006A000C70490E1499FA001112487FF0FC02E5B72
:1006B0003F4F2093872030938820CA010896860FE9
:1006C000971F8093892090938A20089520938720F4
:1006D00030938820460F571F4093892050938A20DB
:1006E000089580918B2080680E944303E0918920C7
:1006F000F0918A20808186958170089580918B2069
:100700008F770E944303E0918920F0918A208081B5
:1007100085FF0CC0209187203091882082819381B1
:10072000F901E05CFF4F808381E0089580E0089547
:1007300080918B208F770E944303E0918920F09174
:100740008A20808184FF0CC02091872030918820EE
:1007500082819381F901E05CFF4F808381E00895FD
:1007600080E0089580918B208F770E944303E09171
:100770008920F0918A2080818D78808380818160BA
:100780008083E0918720F0918820EF5BFF4F1082FB
:1007900080918B2080680E944303E0918920F09132
:1007A0008A20808181608083E0918720F091882079
:1007B000EF5BFF4F10820895E0918920F0918A202D
:1007C0008181846081838181807C803461F4809127
:1007D0008B2080580E944303E0918920F0918A2069
:1007E00081818460818308951F93CF93DF9300D02C
:1007F000CDB7DEB7182F4A8369830E944303E09187
:100800008920F0918A201182812F881F8827881FD4
:10081000880F8083698161831282138220918720EF
:100820003091882024833583110F110B4A811423C2
:10083000F901E05CFF4F10833196108281E00F9048
:100840000F90DF91CF911F910895CF92DF92EF9299
:10085000FF920F931F93CF93DF9300D0CDB7DEB7F6
:10086000E62E6C01F12CFE1409F446C0F6019081CD
:100870009923E9F10181128183812481223010F0D2
:1008800058E101C058E028E030E040E0201731078F
:1008900020F44F5F220F331FF9CF452B292F2F70E4
:1008A00030E02530310514F080E027C0242F2F7E62
:1008B00001341105C8F7882321F0813021F4206C20
:1008C0000FC0206403C0206881110AC0402F622F2E
:1008D00080E8890F2A8399830E94F40399812A81F1
:1008E000402F622F892F0E94F4038823E9F2F394AA
:1008F000F5E0CF0ED11CB7CF81E00F900F90DF91C4
:10090000CF911F910F91FF90EF90DF90CF900895BE
:1009100080E090E0E091C604F091C7049C0174E08F
:10092000220F331F7A95E1F7E20FF31F1186E09152
:10093000C604F091C704E20FF31F118201968530BF
:10094000910541F7089580917F2087FD05C00E94A1
:100950007103882361F010C00E947E03811105C0DD
:1009600080917E208111F8CF08950C94140380911A
:100970007E208111ECCF08950C9401031F93CF9337
:10098000DF93E091C604F091C704E05BFF4FC081A4
:10099000D18114E680918B208078803859F40E94B0
:1009A0007103811105C080917E20811106C022C093
:1009B00080E025C00E947E03F4CF8530E9F0E0910D
:1009C0008920F0918A20818182FD18C0E091C604BF
:1009D000F091C704E05BFF4F808191818C179D07E8
:1009E000C9F22FEF210F112319F0EC01122FD2CFF2
:1009F00084E005C082E003C083E001C081E0DF91B4
:100A0000CF911F910895DF92EF92FF920F931F9362
:100A1000CF93DF93182F092FEB0180918B208068F3
:100A20000E94430320918520309186202C173D079A
:100A300028F0209721F40E94010301C0E901E12E72
:100A4000F02ED12C209709F445C080917E20811191
:100A500002C082E053C0853011F483E04FC00E9491
:100A60009803882311F081E049C00E947E03811120
:100A700040C00E947103882329F320918B2080912C
:100A8000872090918820FC0127FF05C0EF5BFF4F76
:100A9000008110E014C0E05CFF4F0081319680813E
:100AA00010E0081B11090BC00830110550F4F701C4
:100AB00081917F010E94330321970F5F1F4F209781
:100AC00099F7DD24D3940830110509F0D12C0E9448
:100AD0000103B8CFD110B9CF0CC080917E208823FC
:100AE00009F4B7CF853009F4B8CF0E94980381117B
:100AF000BACF0E947E03882381F380E0DF91CF91FB
:100B00001F910F91FF90EF90DF900895DF92EF9289
:100B1000FF920F931F93CF93DF93182F092FEB01B1
:100B200080918B2080680E94430320918520309122
:100B300086202C173D0728F0209721F40E940103FE
:100B400001C0E901E12EF02ED12C209709F447C015
:100B500080917E20811102C082E055C0853011F461
:100B600083E051C00E949803882311F081E04BC0BC
:100B70000E947E03811142C00E947103882329F3E1
:100B800020918B208091872090918820FC0127FF65
:100B900005C0EF5BFF4F008110E016C0E05CFF4F27
:100BA00000813196808110E0081B11090DC00830CA
:100BB000110560F4F70184910E943303FFEFEF1AEF
:100BC000FF0A21970F5F1F4F209789F7DD24D394E9
:100BD0000830110509F0D12C0E940103B6CFD110C5
:100BE000B7CF0CC080917E20882309F4B5CF853023
:100BF00009F4B6CF0E9498038111B8CF0E947E03FA
:100C0000882381F380E0DF91CF911F910F91FF90B6
:100C1000EF90DF9008950F931F93CF93DF93CDB79D
:100C2000DEB7EA97CDBFDEBF0FE710E20E942303D5
:100C3000F80181938F01F0E207381F07B9F70E948E
:100C4000DE010E949803882309F409C120917F20C6
:100C500030918020832F90E08A30910508F0FFC00A
:100C6000FC01E250FF4F0C943309203821F0223868
:100C700009F0F5C008C01091212380912223882318
:100C8000A9F0126013C0809183208F70853008F026
:100C9000E6C00E944303E0918920F0918A201181EF
:100CA00012FB112710F980E00E9443030E94B20357
:100CB000812F0E94330380E0B0C0822F8D7F09F026
:100CC000CEC0222319F0223061F0C9C0809181206A
:100CD000813009F0C4C0333009F080E080932223D2
:100CE00027C080918120811123C0109183201F7023
:100CF0008FEF810F843008F0B2C0812F0E94430330
:100D000080918020833019F40E94DC0311C0E091AF
:100D10008920F0918A2081818B7F818324E8129F32
:100D2000D0011124A353BF4D1C9280818E7F8083FC
:100D300080E00E9443030E94B2030E94A3048FC07C
:100D400021118DC0109181201F770E94B2030E9453
:100D5000A3040E9471038823E1F31093C3041123B9
:100D600011F083E001C082E080937E2078C020589B
:100D7000223008F074C080918120909182208C3DB7
:100D8000E3E09E0771F583E08A838AE389834FB7A6
:100D9000F894DE01139620E038E052E05093CA0147
:100DA000E32FF0E0E4911092CA0120FF03C0E29526
:100DB000EF703F5FEF708E2F90E0EA3010F0C79633
:100DC00001C0C0968D939D932F5F2C3139F74FBF93
:100DD0000E94B2036AE370E0CE0101960E9403050F
:100DE00013C06091832070918420AE014F5F5F4FEC
:100DF0000E94E3018C01009791F10E94B203B801B7
:100E000089819A810E9486050E94140328C0203897
:100E100031F50E94B203809120230E9433030E9487
:100E200001038BCF21111BC0809181208230B8F447
:100E30000E94B20380918120809320230E94A3040A
:100E400080912023811104C08091C304882311F074
:100E500084E001C081E080937E200E94DA010E943C
:100E60009803882321F00E94B2030E94DC03EA96D3
:100E7000CDBFDEBFDF91CF911F910F910895CF932A
:100E8000DF93EC01FC0170968BE0DF011D928A95E7
:100E9000E9F782E08C83898783E08E8761E0CE0169
:100EA00001960E942504882371F061E0CE01069628
:100EB0000E942504882339F061E0CE010B96DF9172
:100EC000CF910C94250480E0DF91CF910895CF93CA
:100ED000FC01C62F80917E20843019F54489558904
:100EE00066897789452B462B472BD9F081810E9453
:100EF00043032091872030918820F901EF5BFF4F59
:100F0000908131978081981728F48C2F0E943303A9
:100F100080E008C00E9401030E94BE048823A9F358
:100F200001C082E0CF910895FB01682F84859585EB
:100F30000E94670721E030E0811102C020E030E02C
:100F400088279927821B930B0895CF93DF932091D5
:100F50007E202430B1F5FC01448955896689778962
:100F6000452B462B472B69F181810E944303209139
:100F70008B208091872090918820FC0127FF05C05D
:100F8000EF5BFF4F208130E008C0E05CFF4F208125
:100F90003196408130E0241B3109232B81F0FC0184
:100FA000EF5BFF4FD0813197C0810E940103DC17B6
:100FB00030F00E94BE04811105C00E94010380E050
:100FC00001C082E0DF91CF910895CF93DF93EC01D0
:100FD00080917E208430A1F44C895D896E897F895F
:100FE000452B462B472B61F089810E9443030E94C9
:100FF0007103882329F0CE01DF91CF910C94A507CE
:10100000DF91CF910895CF93DF9320917E202430FC
:1010100019F08FEF9FEF4AC0FC014489558966891A
:101020007789452B462B472BA1F386810E944303EA
:101030000E947E03882369F380918B202091872072
:1010400030918820F90187FF05C0EF5BFF4F808159
:1010500090E008C0E05CFF4F80813196208190E0F5
:10106000821B9109892B29F00E942303C82FD0E00D
:1010700002C0CFEFDFEF80918B202091872030914D
:101080008820F90187FF05C0EF5BFF4F808190E06A
:1010900008C0E05CFF4F80813196208190E0821B88
:1010A0009109892B11F40E941403CE01DF91CF9195
:1010B0000895FC01848595850E94030897FF02C06E
:1010C0008EEF9FEF0895FB012EE0DB011D922A9524
:1010D000E9F723E0238324E937E02087318729E5F6
:1010E00038E0228733878487958708950895FF9293
:1010F0000F931F93CF93DF93EC010E9498038823F3
:1011000009F4ABC0888190E0209183203091842045
:101110002817390709F0A1C080918020813259F049
:1011200018F48032A1F199C0823209F46EC0833282
:1011300009F481C092C080917F20813A09F08DC06E
:101140000E94B2030E9471038823E1F38C89FD8819
:101150000E891F890E9433038F2D0E943303802F35
:101160000E943303812F0E943303888D0E94330332
:10117000898D0E9433038A8D0E9433030E940103EC
:10118000DF91CF911F910F91FF900C94A304809158
:101190007F20813209F061C00E94B2030E947E0369
:1011A000811105C080917E208111F8CF56C00E9428
:1011B0002303082F0E942303182F0E942303F82ED5
:1011C0000E9423034F2D50E060E070E0BA015527E4
:1011D0004427782B402B512B4C8B5D8B6E8B7F8B58
:1011E0000E942303888F0E942303898F0E94230378
:1011F0008A8F0E9414030E94A304CE01DF91CF9135
:101200001F910F91FF900C94760880917F2081327E
:1012100021F50E94B2030E94A30480918120909145
:101220008220888B998BCE01DF91CF911F910F91F6
:10123000FF900C94E20180917F20813271F40E9432
:10124000B2030E94A30460918120CE01DF91CF916F
:101250001F910F91FF900C947608DF91CF911F9111
:101260000F91FF900895EE0FFF1F0590F491E02D70
:061270000994F894FFCF81
:101276000083100000010410000001820800000134
:0C1286000000000000000000000000005C
:00000001FF
